{
	"Reservation.sol": {
		"Reservation": {
			"abi": [
				{
					"inputs": [],
					"stateMutability": "nonpayable",
					"type": "constructor"
				},
				{
					"inputs": [
						{
							"internalType": "uint256",
							"name": "",
							"type": "uint256"
						}
					],
					"name": "bookings",
					"outputs": [
						{
							"internalType": "address",
							"name": "user",
							"type": "address"
						},
						{
							"internalType": "string",
							"name": "name",
							"type": "string"
						},
						{
							"internalType": "uint256",
							"name": "date",
							"type": "uint256"
						},
						{
							"internalType": "uint256",
							"name": "amount",
							"type": "uint256"
						},
						{
							"internalType": "bool",
							"name": "cancelled",
							"type": "bool"
						}
					],
					"stateMutability": "view",
					"type": "function"
				},
				{
					"inputs": [
						{
							"internalType": "uint256",
							"name": "index",
							"type": "uint256"
						}
					],
					"name": "cancelReservation",
					"outputs": [],
					"stateMutability": "nonpayable",
					"type": "function"
				},
				{
					"inputs": [],
					"name": "getBookingsCount",
					"outputs": [
						{
							"internalType": "uint256",
							"name": "",
							"type": "uint256"
						}
					],
					"stateMutability": "view",
					"type": "function"
				},
				{
					"inputs": [],
					"name": "owner",
					"outputs": [
						{
							"internalType": "address",
							"name": "",
							"type": "address"
						}
					],
					"stateMutability": "view",
					"type": "function"
				},
				{
					"inputs": [],
					"name": "reservationPrice",
					"outputs": [
						{
							"internalType": "uint256",
							"name": "",
							"type": "uint256"
						}
					],
					"stateMutability": "view",
					"type": "function"
				},
				{
					"inputs": [
						{
							"internalType": "string",
							"name": "_name",
							"type": "string"
						},
						{
							"internalType": "uint256",
							"name": "_date",
							"type": "uint256"
						}
					],
					"name": "reserve",
					"outputs": [],
					"stateMutability": "payable",
					"type": "function"
				},
				{
					"inputs": [],
					"name": "withdraw",
					"outputs": [],
					"stateMutability": "nonpayable",
					"type": "function"
				}
			],
			"devdoc": {
				"kind": "dev",
				"methods": {},
				"version": 1
			},
			"evm": {
				"assembly": "    /* \"Reservation.sol\":60:1619  contract Reservation {... */\n  mstore(0x40, 0x80)\n    /* \"Reservation.sol\":148:157  0.1 ether */\n  0x016345785d8a0000\n    /* \"Reservation.sol\":117:157  uint public reservationPrice = 0.1 ether */\n  0x01\n  sstore\n    /* \"Reservation.sol\":343:394  constructor() {... */\n  callvalue\n  dup1\n  iszero\n  tag_1\n  jumpi\n  revert(0x00, 0x00)\ntag_1:\n  pop\n    /* \"Reservation.sol\":376:386  msg.sender */\n  caller\n    /* \"Reservation.sol\":368:373  owner */\n  0x00\n  0x00\n    /* \"Reservation.sol\":368:386  owner = msg.sender */\n  0x0100\n  exp\n  dup2\n  sload\n  dup2\n  0xffffffffffffffffffffffffffffffffffffffff\n  mul\n  not\n  and\n  swap1\n  dup4\n  0xffffffffffffffffffffffffffffffffffffffff\n  and\n  mul\n  or\n  swap1\n  sstore\n  pop\n    /* \"Reservation.sol\":60:1619  contract Reservation {... */\n  dataSize(sub_0)\n  dup1\n  dataOffset(sub_0)\n  0x00\n  codecopy\n  0x00\n  return\nstop\n\nsub_0: assembly {\n        /* \"Reservation.sol\":60:1619  contract Reservation {... */\n      mstore(0x40, 0x80)\n      jumpi(tag_1, lt(calldatasize, 0x04))\n      shr(0xe0, calldataload(0x00))\n      dup1\n      0xae5e6cf4\n      gt\n      tag_9\n      jumpi\n      dup1\n      0xae5e6cf4\n      eq\n      tag_5\n      jumpi\n      dup1\n      0xaf426f11\n      eq\n      tag_6\n      jumpi\n      dup1\n      0xd8012a2a\n      eq\n      tag_7\n      jumpi\n      dup1\n      0xf0f160f8\n      eq\n      tag_8\n      jumpi\n      jump(tag_1)\n    tag_9:\n      dup1\n      0x1dab301e\n      eq\n      tag_2\n      jumpi\n      dup1\n      0x3ccfd60b\n      eq\n      tag_3\n      jumpi\n      dup1\n      0x8da5cb5b\n      eq\n      tag_4\n      jumpi\n    tag_1:\n      revert(0x00, 0x00)\n        /* \"Reservation.sol\":309:334  Booking[] public bookings */\n    tag_2:\n      callvalue\n      dup1\n      iszero\n      tag_10\n      jumpi\n      revert(0x00, 0x00)\n    tag_10:\n      pop\n      tag_11\n      0x04\n      dup1\n      calldatasize\n      sub\n      dup2\n      add\n      swap1\n      tag_12\n      swap2\n      swap1\n      tag_13\n      jump\t// in\n    tag_12:\n      tag_14\n      jump\t// in\n    tag_11:\n      mload(0x40)\n      tag_15\n      swap6\n      swap5\n      swap4\n      swap3\n      swap2\n      swap1\n      tag_16\n      jump\t// in\n    tag_15:\n      mload(0x40)\n      dup1\n      swap2\n      sub\n      swap1\n      return\n        /* \"Reservation.sol\":1392:1616  function withdraw() public {... */\n    tag_3:\n      callvalue\n      dup1\n      iszero\n      tag_17\n      jumpi\n      revert(0x00, 0x00)\n    tag_17:\n      pop\n      tag_18\n      tag_19\n      jump\t// in\n    tag_18:\n      stop\n        /* \"Reservation.sol\":90:110  address public owner */\n    tag_4:\n      callvalue\n      dup1\n      iszero\n      tag_20\n      jumpi\n      revert(0x00, 0x00)\n    tag_20:\n      pop\n      tag_21\n      tag_22\n      jump\t// in\n    tag_21:\n      mload(0x40)\n      tag_23\n      swap2\n      swap1\n      tag_24\n      jump\t// in\n    tag_23:\n      mload(0x40)\n      dup1\n      swap2\n      sub\n      swap1\n      return\n        /* \"Reservation.sol\":942:1344  function cancelReservation(uint index) public {... */\n    tag_5:\n      callvalue\n      dup1\n      iszero\n      tag_25\n      jumpi\n      revert(0x00, 0x00)\n    tag_25:\n      pop\n      tag_26\n      0x04\n      dup1\n      calldatasize\n      sub\n      dup2\n      add\n      swap1\n      tag_27\n      swap2\n      swap1\n      tag_13\n      jump\t// in\n    tag_27:\n      tag_28\n      jump\t// in\n    tag_26:\n      stop\n        /* \"Reservation.sol\":117:157  uint public reservationPrice = 0.1 ether */\n    tag_6:\n      callvalue\n      dup1\n      iszero\n      tag_29\n      jumpi\n      revert(0x00, 0x00)\n    tag_29:\n      pop\n      tag_30\n      tag_31\n      jump\t// in\n    tag_30:\n      mload(0x40)\n      tag_32\n      swap2\n      swap1\n      tag_33\n      jump\t// in\n    tag_32:\n      mload(0x40)\n      dup1\n      swap2\n      sub\n      swap1\n      return\n        /* \"Reservation.sol\":802:898  function getBookingsCount() public view returns (uint) {... */\n    tag_7:\n      callvalue\n      dup1\n      iszero\n      tag_34\n      jumpi\n      revert(0x00, 0x00)\n    tag_34:\n      pop\n      tag_35\n      tag_36\n      jump\t// in\n    tag_35:\n      mload(0x40)\n      tag_37\n      swap2\n      swap1\n      tag_33\n      jump\t// in\n    tag_37:\n      mload(0x40)\n      dup1\n      swap2\n      sub\n      swap1\n      return\n        /* \"Reservation.sol\":429:763  function reserve(string memory _name, uint _date) public payable {... */\n    tag_8:\n      tag_38\n      0x04\n      dup1\n      calldatasize\n      sub\n      dup2\n      add\n      swap1\n      tag_39\n      swap2\n      swap1\n      tag_40\n      jump\t// in\n    tag_39:\n      tag_41\n      jump\t// in\n    tag_38:\n      stop\n        /* \"Reservation.sol\":309:334  Booking[] public bookings */\n    tag_14:\n      0x02\n      dup2\n      dup2\n      sload\n      dup2\n      lt\n      tag_42\n      jumpi\n      0x00\n      dup1\n      revert\n    tag_42:\n      swap1\n      0x00\n      mstore\n      keccak256(0x00, 0x20)\n      swap1\n      0x05\n      mul\n      add\n      0x00\n      swap2\n      pop\n      swap1\n      pop\n      dup1\n      0x00\n      add\n      0x00\n      swap1\n      sload\n      swap1\n      0x0100\n      exp\n      swap1\n      div\n      0xffffffffffffffffffffffffffffffffffffffff\n      and\n      swap1\n      dup1\n      0x01\n      add\n      dup1\n      sload\n      tag_44\n      swap1\n      tag_45\n      jump\t// in\n    tag_44:\n      dup1\n      0x1f\n      add\n      0x20\n      dup1\n      swap2\n      div\n      mul\n      0x20\n      add\n      mload(0x40)\n      swap1\n      dup2\n      add\n      0x40\n      mstore\n      dup1\n      swap3\n      swap2\n      swap1\n      dup2\n      dup2\n      mstore\n      0x20\n      add\n      dup3\n      dup1\n      sload\n      tag_46\n      swap1\n      tag_45\n      jump\t// in\n    tag_46:\n      dup1\n      iszero\n      tag_47\n      jumpi\n      dup1\n      0x1f\n      lt\n      tag_48\n      jumpi\n      0x0100\n      dup1\n      dup4\n      sload\n      div\n      mul\n      dup4\n      mstore\n      swap2\n      0x20\n      add\n      swap2\n      jump(tag_47)\n    tag_48:\n      dup3\n      add\n      swap2\n      swap1\n      0x00\n      mstore\n      keccak256(0x00, 0x20)\n      swap1\n    tag_49:\n      dup2\n      sload\n      dup2\n      mstore\n      swap1\n      0x01\n      add\n      swap1\n      0x20\n      add\n      dup1\n      dup4\n      gt\n      tag_49\n      jumpi\n      dup3\n      swap1\n      sub\n      0x1f\n      and\n      dup3\n      add\n      swap2\n    tag_47:\n      pop\n      pop\n      pop\n      pop\n      pop\n      swap1\n      dup1\n      0x02\n      add\n      sload\n      swap1\n      dup1\n      0x03\n      add\n      sload\n      swap1\n      dup1\n      0x04\n      add\n      0x00\n      swap1\n      sload\n      swap1\n      0x0100\n      exp\n      swap1\n      div\n      0xff\n      and\n      swap1\n      pop\n      dup6\n      jump\t// out\n        /* \"Reservation.sol\":1392:1616  function withdraw() public {... */\n    tag_19:\n        /* \"Reservation.sol\":1452:1457  owner */\n      0x00\n      0x00\n      swap1\n      sload\n      swap1\n      0x0100\n      exp\n      swap1\n      div\n      0xffffffffffffffffffffffffffffffffffffffff\n      and\n        /* \"Reservation.sol\":1438:1457  msg.sender == owner */\n      0xffffffffffffffffffffffffffffffffffffffff\n      and\n        /* \"Reservation.sol\":1438:1448  msg.sender */\n      caller\n        /* \"Reservation.sol\":1438:1457  msg.sender == owner */\n      0xffffffffffffffffffffffffffffffffffffffff\n      and\n      eq\n        /* \"Reservation.sol\":1430:1471  require(msg.sender == owner, \"Not owner\") */\n      tag_51\n      jumpi\n      mload(0x40)\n      0x08c379a000000000000000000000000000000000000000000000000000000000\n      dup2\n      mstore\n      0x04\n      add\n      tag_52\n      swap1\n      tag_53\n      jump\t// in\n    tag_52:\n      mload(0x40)\n      dup1\n      swap2\n      sub\n      swap1\n      revert\n    tag_51:\n        /* \"Reservation.sol\":1485:1497  bool success */\n      0x00\n        /* \"Reservation.sol\":1510:1515  owner */\n      0x00\n      0x00\n      swap1\n      sload\n      swap1\n      0x0100\n      exp\n      swap1\n      div\n      0xffffffffffffffffffffffffffffffffffffffff\n      and\n        /* \"Reservation.sol\":1502:1521  payable(owner).call */\n      0xffffffffffffffffffffffffffffffffffffffff\n      and\n        /* \"Reservation.sol\":1529:1550  address(this).balance */\n      selfbalance\n        /* \"Reservation.sol\":1502:1555  payable(owner).call{value: address(this).balance}(\"\") */\n      mload(0x40)\n      tag_54\n      swap1\n      tag_55\n      jump\t// in\n    tag_54:\n      0x00\n      mload(0x40)\n      dup1\n      dup4\n      sub\n      dup2\n      dup6\n      dup8\n      gas\n      call\n      swap3\n      pop\n      pop\n      pop\n      returndatasize\n      dup1\n      0x00\n      dup2\n      eq\n      tag_58\n      jumpi\n      mload(0x40)\n      swap2\n      pop\n      and(add(returndatasize, 0x3f), not(0x1f))\n      dup3\n      add\n      0x40\n      mstore\n      returndatasize\n      dup3\n      mstore\n      returndatasize\n      0x00\n      0x20\n      dup5\n      add\n      returndatacopy\n      jump(tag_57)\n    tag_58:\n      0x60\n      swap2\n      pop\n    tag_57:\n      pop\n        /* \"Reservation.sol\":1484:1555  (bool success,) = payable(owner).call{value: address(this).balance}(\"\") */\n      pop\n      swap1\n      pop\n        /* \"Reservation.sol\":1574:1581  success */\n      dup1\n        /* \"Reservation.sol\":1566:1608  require(success, \"Transfer failed failed\") */\n      tag_59\n      jumpi\n      mload(0x40)\n      0x08c379a000000000000000000000000000000000000000000000000000000000\n      dup2\n      mstore\n      0x04\n      add\n      tag_60\n      swap1\n      tag_61\n      jump\t// in\n    tag_60:\n      mload(0x40)\n      dup1\n      swap2\n      sub\n      swap1\n      revert\n    tag_59:\n        /* \"Reservation.sol\":1419:1616  {... */\n      pop\n        /* \"Reservation.sol\":1392:1616  function withdraw() public {... */\n      jump\t// out\n        /* \"Reservation.sol\":90:110  address public owner */\n    tag_22:\n      0x00\n      0x00\n      swap1\n      sload\n      swap1\n      0x0100\n      exp\n      swap1\n      div\n      0xffffffffffffffffffffffffffffffffffffffff\n      and\n      dup2\n      jump\t// out\n        /* \"Reservation.sol\":942:1344  function cancelReservation(uint index) public {... */\n    tag_28:\n        /* \"Reservation.sol\":999:1022  Booking storage booking */\n      0x00\n        /* \"Reservation.sol\":1025:1033  bookings */\n      0x02\n        /* \"Reservation.sol\":1034:1039  index */\n      dup3\n        /* \"Reservation.sol\":1025:1040  bookings[index] */\n      dup2\n      sload\n      dup2\n      lt\n      tag_63\n      jumpi\n      tag_64\n      tag_65\n      jump\t// in\n    tag_64:\n    tag_63:\n      swap1\n      0x00\n      mstore\n      keccak256(0x00, 0x20)\n      swap1\n      0x05\n      mul\n      add\n        /* \"Reservation.sol\":999:1040  Booking storage booking = bookings[index] */\n      swap1\n      pop\n        /* \"Reservation.sol\":1075:1082  booking */\n      dup1\n        /* \"Reservation.sol\":1075:1087  booking.user */\n      0x00\n      add\n      0x00\n      swap1\n      sload\n      swap1\n      0x0100\n      exp\n      swap1\n      div\n      0xffffffffffffffffffffffffffffffffffffffff\n      and\n        /* \"Reservation.sol\":1061:1087  msg.sender == booking.user */\n      0xffffffffffffffffffffffffffffffffffffffff\n      and\n        /* \"Reservation.sol\":1061:1071  msg.sender */\n      caller\n        /* \"Reservation.sol\":1061:1087  msg.sender == booking.user */\n      0xffffffffffffffffffffffffffffffffffffffff\n      and\n      eq\n        /* \"Reservation.sol\":1053:1112  require(msg.sender == booking.user, \"Not your reservation\") */\n      tag_67\n      jumpi\n      mload(0x40)\n      0x08c379a000000000000000000000000000000000000000000000000000000000\n      dup2\n      mstore\n      0x04\n      add\n      tag_68\n      swap1\n      tag_69\n      jump\t// in\n    tag_68:\n      mload(0x40)\n      dup1\n      swap2\n      sub\n      swap1\n      revert\n    tag_67:\n        /* \"Reservation.sol\":1132:1139  booking */\n      dup1\n        /* \"Reservation.sol\":1132:1149  booking.cancelled */\n      0x04\n      add\n      0x00\n      swap1\n      sload\n      swap1\n      0x0100\n      exp\n      swap1\n      div\n      0xff\n      and\n        /* \"Reservation.sol\":1131:1149  !booking.cancelled */\n      iszero\n        /* \"Reservation.sol\":1123:1171  require(!booking.cancelled, \"Already cancelled\") */\n      tag_70\n      jumpi\n      mload(0x40)\n      0x08c379a000000000000000000000000000000000000000000000000000000000\n      dup2\n      mstore\n      0x04\n      add\n      tag_71\n      swap1\n      tag_72\n      jump\t// in\n    tag_71:\n      mload(0x40)\n      dup1\n      swap2\n      sub\n      swap1\n      revert\n    tag_70:\n        /* \"Reservation.sol\":1204:1208  true */\n      0x01\n        /* \"Reservation.sol\":1184:1191  booking */\n      dup2\n        /* \"Reservation.sol\":1184:1201  booking.cancelled */\n      0x04\n      add\n      0x00\n        /* \"Reservation.sol\":1184:1208  booking.cancelled = true */\n      0x0100\n      exp\n      dup2\n      sload\n      dup2\n      0xff\n      mul\n      not\n      and\n      swap1\n      dup4\n      iszero\n      iszero\n      mul\n      or\n      swap1\n      sstore\n      pop\n        /* \"Reservation.sol\":1222:1234  bool success */\n      0x00\n        /* \"Reservation.sol\":1247:1257  msg.sender */\n      caller\n        /* \"Reservation.sol\":1239:1263  payable(msg.sender).call */\n      0xffffffffffffffffffffffffffffffffffffffff\n      and\n        /* \"Reservation.sol\":1271:1278  booking */\n      dup3\n        /* \"Reservation.sol\":1271:1285  booking.amount */\n      0x03\n      add\n      sload\n        /* \"Reservation.sol\":1239:1290  payable(msg.sender).call{value: booking.amount}(\"\") */\n      mload(0x40)\n      tag_73\n      swap1\n      tag_55\n      jump\t// in\n    tag_73:\n      0x00\n      mload(0x40)\n      dup1\n      dup4\n      sub\n      dup2\n      dup6\n      dup8\n      gas\n      call\n      swap3\n      pop\n      pop\n      pop\n      returndatasize\n      dup1\n      0x00\n      dup2\n      eq\n      tag_76\n      jumpi\n      mload(0x40)\n      swap2\n      pop\n      and(add(returndatasize, 0x3f), not(0x1f))\n      dup3\n      add\n      0x40\n      mstore\n      returndatasize\n      dup3\n      mstore\n      returndatasize\n      0x00\n      0x20\n      dup5\n      add\n      returndatacopy\n      jump(tag_75)\n    tag_76:\n      0x60\n      swap2\n      pop\n    tag_75:\n      pop\n        /* \"Reservation.sol\":1221:1290  (bool success,) = payable(msg.sender).call{value: booking.amount}(\"\") */\n      pop\n      swap1\n      pop\n        /* \"Reservation.sol\":1309:1316  success */\n      dup1\n        /* \"Reservation.sol\":1301:1336  require(success, \"Transfer failed\") */\n      tag_77\n      jumpi\n      mload(0x40)\n      0x08c379a000000000000000000000000000000000000000000000000000000000\n      dup2\n      mstore\n      0x04\n      add\n      tag_78\n      swap1\n      tag_79\n      jump\t// in\n    tag_78:\n      mload(0x40)\n      dup1\n      swap2\n      sub\n      swap1\n      revert\n    tag_77:\n        /* \"Reservation.sol\":988:1344  {... */\n      pop\n      pop\n        /* \"Reservation.sol\":942:1344  function cancelReservation(uint index) public {... */\n      pop\n      jump\t// out\n        /* \"Reservation.sol\":117:157  uint public reservationPrice = 0.1 ether */\n    tag_31:\n      sload(0x01)\n      dup2\n      jump\t// out\n        /* \"Reservation.sol\":802:898  function getBookingsCount() public view returns (uint) {... */\n    tag_36:\n        /* \"Reservation.sol\":851:855  uint */\n      0x00\n        /* \"Reservation.sol\":875:883  bookings */\n      0x02\n        /* \"Reservation.sol\":875:890  bookings.length */\n      dup1\n      sload\n      swap1\n      pop\n        /* \"Reservation.sol\":868:890  return bookings.length */\n      swap1\n      pop\n        /* \"Reservation.sol\":802:898  function getBookingsCount() public view returns (uint) {... */\n      swap1\n      jump\t// out\n        /* \"Reservation.sol\":429:763  function reserve(string memory _name, uint _date) public payable {... */\n    tag_41:\n        /* \"Reservation.sol\":526:542  reservationPrice */\n      sload(0x01)\n        /* \"Reservation.sol\":513:522  msg.value */\n      callvalue\n        /* \"Reservation.sol\":513:542  msg.value >= reservationPrice */\n      lt\n      iszero\n        /* \"Reservation.sol\":505:561  require(msg.value >= reservationPrice, \"Not enough ETH\") */\n      tag_82\n      jumpi\n      mload(0x40)\n      0x08c379a000000000000000000000000000000000000000000000000000000000\n      dup2\n      mstore\n      0x04\n      add\n      tag_83\n      swap1\n      tag_84\n      jump\t// in\n    tag_83:\n      mload(0x40)\n      dup1\n      swap2\n      sub\n      swap1\n      revert\n    tag_82:\n        /* \"Reservation.sol\":574:582  bookings */\n      0x02\n        /* \"Reservation.sol\":588:754  Booking({... */\n      mload(0x40)\n      dup1\n      0xa0\n      add\n      0x40\n      mstore\n      dup1\n        /* \"Reservation.sol\":617:627  msg.sender */\n      caller\n        /* \"Reservation.sol\":588:754  Booking({... */\n      0xffffffffffffffffffffffffffffffffffffffff\n      and\n      dup2\n      mstore\n      0x20\n      add\n        /* \"Reservation.sol\":648:653  _name */\n      dup5\n        /* \"Reservation.sol\":588:754  Booking({... */\n      dup2\n      mstore\n      0x20\n      add\n        /* \"Reservation.sol\":674:679  _date */\n      dup4\n        /* \"Reservation.sol\":588:754  Booking({... */\n      dup2\n      mstore\n      0x20\n      add\n        /* \"Reservation.sol\":702:711  msg.value */\n      callvalue\n        /* \"Reservation.sol\":588:754  Booking({... */\n      dup2\n      mstore\n      0x20\n      add\n        /* \"Reservation.sol\":737:742  false */\n      0x00\n        /* \"Reservation.sol\":588:754  Booking({... */\n      iszero\n      iszero\n      dup2\n      mstore\n      pop\n        /* \"Reservation.sol\":574:755  bookings.push(Booking({... */\n      swap1\n      dup1\n      0x01\n      dup2\n      sload\n      add\n      dup1\n      dup3\n      sstore\n      dup1\n      swap2\n      pop\n      pop\n      0x01\n      swap1\n      sub\n      swap1\n      0x00\n      mstore\n      keccak256(0x00, 0x20)\n      swap1\n      0x05\n      mul\n      add\n      0x00\n      swap1\n      swap2\n      swap1\n      swap2\n      swap1\n      swap2\n      pop\n      0x00\n      dup3\n      add\n      mload\n      dup2\n      0x00\n      add\n      exp(0x0100, 0x00)\n      dup2\n      sload\n      dup2\n      0xffffffffffffffffffffffffffffffffffffffff\n      mul\n      not\n      and\n      swap1\n      dup4\n      0xffffffffffffffffffffffffffffffffffffffff\n      and\n      mul\n      or\n      swap1\n      sstore\n      pop\n      0x20\n      dup3\n      add\n      mload\n      dup2\n      0x01\n      add\n      swap1\n      dup2\n      tag_86\n      swap2\n      swap1\n      tag_87\n      jump\t// in\n    tag_86:\n      pop\n      0x40\n      dup3\n      add\n      mload\n      dup2\n      0x02\n      add\n      sstore\n      0x60\n      dup3\n      add\n      mload\n      dup2\n      0x03\n      add\n      sstore\n      0x80\n      dup3\n      add\n      mload\n      dup2\n      0x04\n      add\n      exp(0x0100, 0x00)\n      dup2\n      sload\n      dup2\n      0xff\n      mul\n      not\n      and\n      swap1\n      dup4\n      iszero\n      iszero\n      mul\n      or\n      swap1\n      sstore\n      pop\n      pop\n      pop\n        /* \"Reservation.sol\":429:763  function reserve(string memory _name, uint _date) public payable {... */\n      pop\n      pop\n      jump\t// out\n        /* \"#utility.yul\":7:82   */\n    tag_88:\n        /* \"#utility.yul\":40:46   */\n      0x00\n        /* \"#utility.yul\":73:75   */\n      0x40\n        /* \"#utility.yul\":67:76   */\n      mload\n        /* \"#utility.yul\":57:76   */\n      swap1\n      pop\n        /* \"#utility.yul\":7:82   */\n      swap1\n      jump\t// out\n        /* \"#utility.yul\":88:205   */\n    tag_89:\n        /* \"#utility.yul\":197:198   */\n      0x00\n        /* \"#utility.yul\":194:195   */\n      0x00\n        /* \"#utility.yul\":187:199   */\n      revert\n        /* \"#utility.yul\":211:328   */\n    tag_90:\n        /* \"#utility.yul\":320:321   */\n      0x00\n        /* \"#utility.yul\":317:318   */\n      0x00\n        /* \"#utility.yul\":310:322   */\n      revert\n        /* \"#utility.yul\":334:411   */\n    tag_91:\n        /* \"#utility.yul\":371:378   */\n      0x00\n        /* \"#utility.yul\":400:405   */\n      dup2\n        /* \"#utility.yul\":389:405   */\n      swap1\n      pop\n        /* \"#utility.yul\":334:411   */\n      swap2\n      swap1\n      pop\n      jump\t// out\n        /* \"#utility.yul\":417:539   */\n    tag_92:\n        /* \"#utility.yul\":490:514   */\n      tag_151\n        /* \"#utility.yul\":508:513   */\n      dup2\n        /* \"#utility.yul\":490:514   */\n      tag_91\n      jump\t// in\n    tag_151:\n        /* \"#utility.yul\":483:488   */\n      dup2\n        /* \"#utility.yul\":480:515   */\n      eq\n        /* \"#utility.yul\":470:533   */\n      tag_152\n      jumpi\n        /* \"#utility.yul\":529:530   */\n      0x00\n        /* \"#utility.yul\":526:527   */\n      0x00\n        /* \"#utility.yul\":519:531   */\n      revert\n        /* \"#utility.yul\":470:533   */\n    tag_152:\n        /* \"#utility.yul\":417:539   */\n      pop\n      jump\t// out\n        /* \"#utility.yul\":545:684   */\n    tag_93:\n        /* \"#utility.yul\":591:596   */\n      0x00\n        /* \"#utility.yul\":629:635   */\n      dup2\n        /* \"#utility.yul\":616:636   */\n      calldataload\n        /* \"#utility.yul\":607:636   */\n      swap1\n      pop\n        /* \"#utility.yul\":645:678   */\n      tag_154\n        /* \"#utility.yul\":672:677   */\n      dup2\n        /* \"#utility.yul\":645:678   */\n      tag_92\n      jump\t// in\n    tag_154:\n        /* \"#utility.yul\":545:684   */\n      swap3\n      swap2\n      pop\n      pop\n      jump\t// out\n        /* \"#utility.yul\":690:1019   */\n    tag_13:\n        /* \"#utility.yul\":749:755   */\n      0x00\n        /* \"#utility.yul\":798:800   */\n      0x20\n        /* \"#utility.yul\":786:795   */\n      dup3\n        /* \"#utility.yul\":777:784   */\n      dup5\n        /* \"#utility.yul\":773:796   */\n      sub\n        /* \"#utility.yul\":769:801   */\n      slt\n        /* \"#utility.yul\":766:885   */\n      iszero\n      tag_156\n      jumpi\n        /* \"#utility.yul\":804:883   */\n      tag_157\n      tag_89\n      jump\t// in\n    tag_157:\n        /* \"#utility.yul\":766:885   */\n    tag_156:\n        /* \"#utility.yul\":924:925   */\n      0x00\n        /* \"#utility.yul\":949:1002   */\n      tag_158\n        /* \"#utility.yul\":994:1001   */\n      dup5\n        /* \"#utility.yul\":985:991   */\n      dup3\n        /* \"#utility.yul\":974:983   */\n      dup6\n        /* \"#utility.yul\":970:992   */\n      add\n        /* \"#utility.yul\":949:1002   */\n      tag_93\n      jump\t// in\n    tag_158:\n        /* \"#utility.yul\":939:1002   */\n      swap2\n      pop\n        /* \"#utility.yul\":895:1012   */\n      pop\n        /* \"#utility.yul\":690:1019   */\n      swap3\n      swap2\n      pop\n      pop\n      jump\t// out\n        /* \"#utility.yul\":1025:1151   */\n    tag_94:\n        /* \"#utility.yul\":1062:1069   */\n      0x00\n        /* \"#utility.yul\":1102:1144   */\n      0xffffffffffffffffffffffffffffffffffffffff\n        /* \"#utility.yul\":1095:1100   */\n      dup3\n        /* \"#utility.yul\":1091:1145   */\n      and\n        /* \"#utility.yul\":1080:1145   */\n      swap1\n      pop\n        /* \"#utility.yul\":1025:1151   */\n      swap2\n      swap1\n      pop\n      jump\t// out\n        /* \"#utility.yul\":1157:1253   */\n    tag_95:\n        /* \"#utility.yul\":1194:1201   */\n      0x00\n        /* \"#utility.yul\":1223:1247   */\n      tag_161\n        /* \"#utility.yul\":1241:1246   */\n      dup3\n        /* \"#utility.yul\":1223:1247   */\n      tag_94\n      jump\t// in\n    tag_161:\n        /* \"#utility.yul\":1212:1247   */\n      swap1\n      pop\n        /* \"#utility.yul\":1157:1253   */\n      swap2\n      swap1\n      pop\n      jump\t// out\n        /* \"#utility.yul\":1259:1377   */\n    tag_96:\n        /* \"#utility.yul\":1346:1370   */\n      tag_163\n        /* \"#utility.yul\":1364:1369   */\n      dup2\n        /* \"#utility.yul\":1346:1370   */\n      tag_95\n      jump\t// in\n    tag_163:\n        /* \"#utility.yul\":1341:1344   */\n      dup3\n        /* \"#utility.yul\":1334:1371   */\n      mstore\n        /* \"#utility.yul\":1259:1377   */\n      pop\n      pop\n      jump\t// out\n        /* \"#utility.yul\":1383:1482   */\n    tag_97:\n        /* \"#utility.yul\":1435:1441   */\n      0x00\n        /* \"#utility.yul\":1469:1474   */\n      dup2\n        /* \"#utility.yul\":1463:1475   */\n      mload\n        /* \"#utility.yul\":1453:1475   */\n      swap1\n      pop\n        /* \"#utility.yul\":1383:1482   */\n      swap2\n      swap1\n      pop\n      jump\t// out\n        /* \"#utility.yul\":1488:1657   */\n    tag_98:\n        /* \"#utility.yul\":1572:1583   */\n      0x00\n        /* \"#utility.yul\":1606:1612   */\n      dup3\n        /* \"#utility.yul\":1601:1604   */\n      dup3\n        /* \"#utility.yul\":1594:1613   */\n      mstore\n        /* \"#utility.yul\":1646:1650   */\n      0x20\n        /* \"#utility.yul\":1641:1644   */\n      dup3\n        /* \"#utility.yul\":1637:1651   */\n      add\n        /* \"#utility.yul\":1622:1651   */\n      swap1\n      pop\n        /* \"#utility.yul\":1488:1657   */\n      swap3\n      swap2\n      pop\n      pop\n      jump\t// out\n        /* \"#utility.yul\":1663:1802   */\n    tag_99:\n        /* \"#utility.yul\":1752:1758   */\n      dup3\n        /* \"#utility.yul\":1747:1750   */\n      dup2\n        /* \"#utility.yul\":1742:1745   */\n      dup4\n        /* \"#utility.yul\":1736:1759   */\n      mcopy\n        /* \"#utility.yul\":1793:1794   */\n      0x00\n        /* \"#utility.yul\":1784:1790   */\n      dup4\n        /* \"#utility.yul\":1779:1782   */\n      dup4\n        /* \"#utility.yul\":1775:1791   */\n      add\n        /* \"#utility.yul\":1768:1795   */\n      mstore\n        /* \"#utility.yul\":1663:1802   */\n      pop\n      pop\n      pop\n      jump\t// out\n        /* \"#utility.yul\":1808:1910   */\n    tag_100:\n        /* \"#utility.yul\":1849:1855   */\n      0x00\n        /* \"#utility.yul\":1900:1902   */\n      0x1f\n        /* \"#utility.yul\":1896:1903   */\n      not\n        /* \"#utility.yul\":1891:1893   */\n      0x1f\n        /* \"#utility.yul\":1884:1889   */\n      dup4\n        /* \"#utility.yul\":1880:1894   */\n      add\n        /* \"#utility.yul\":1876:1904   */\n      and\n        /* \"#utility.yul\":1866:1904   */\n      swap1\n      pop\n        /* \"#utility.yul\":1808:1910   */\n      swap2\n      swap1\n      pop\n      jump\t// out\n        /* \"#utility.yul\":1916:2293   */\n    tag_101:\n        /* \"#utility.yul\":2004:2007   */\n      0x00\n        /* \"#utility.yul\":2032:2071   */\n      tag_169\n        /* \"#utility.yul\":2065:2070   */\n      dup3\n        /* \"#utility.yul\":2032:2071   */\n      tag_97\n      jump\t// in\n    tag_169:\n        /* \"#utility.yul\":2087:2158   */\n      tag_170\n        /* \"#utility.yul\":2151:2157   */\n      dup2\n        /* \"#utility.yul\":2146:2149   */\n      dup6\n        /* \"#utility.yul\":2087:2158   */\n      tag_98\n      jump\t// in\n    tag_170:\n        /* \"#utility.yul\":2080:2158   */\n      swap4\n      pop\n        /* \"#utility.yul\":2167:2232   */\n      tag_171\n        /* \"#utility.yul\":2225:2231   */\n      dup2\n        /* \"#utility.yul\":2220:2223   */\n      dup6\n        /* \"#utility.yul\":2213:2217   */\n      0x20\n        /* \"#utility.yul\":2206:2211   */\n      dup7\n        /* \"#utility.yul\":2202:2218   */\n      add\n        /* \"#utility.yul\":2167:2232   */\n      tag_99\n      jump\t// in\n    tag_171:\n        /* \"#utility.yul\":2257:2286   */\n      tag_172\n        /* \"#utility.yul\":2279:2285   */\n      dup2\n        /* \"#utility.yul\":2257:2286   */\n      tag_100\n      jump\t// in\n    tag_172:\n        /* \"#utility.yul\":2252:2255   */\n      dup5\n        /* \"#utility.yul\":2248:2287   */\n      add\n        /* \"#utility.yul\":2241:2287   */\n      swap2\n      pop\n        /* \"#utility.yul\":2008:2293   */\n      pop\n        /* \"#utility.yul\":1916:2293   */\n      swap3\n      swap2\n      pop\n      pop\n      jump\t// out\n        /* \"#utility.yul\":2299:2417   */\n    tag_102:\n        /* \"#utility.yul\":2386:2410   */\n      tag_174\n        /* \"#utility.yul\":2404:2409   */\n      dup2\n        /* \"#utility.yul\":2386:2410   */\n      tag_91\n      jump\t// in\n    tag_174:\n        /* \"#utility.yul\":2381:2384   */\n      dup3\n        /* \"#utility.yul\":2374:2411   */\n      mstore\n        /* \"#utility.yul\":2299:2417   */\n      pop\n      pop\n      jump\t// out\n        /* \"#utility.yul\":2423:2513   */\n    tag_103:\n        /* \"#utility.yul\":2457:2464   */\n      0x00\n        /* \"#utility.yul\":2500:2505   */\n      dup2\n        /* \"#utility.yul\":2493:2506   */\n      iszero\n        /* \"#utility.yul\":2486:2507   */\n      iszero\n        /* \"#utility.yul\":2475:2507   */\n      swap1\n      pop\n        /* \"#utility.yul\":2423:2513   */\n      swap2\n      swap1\n      pop\n      jump\t// out\n        /* \"#utility.yul\":2519:2628   */\n    tag_104:\n        /* \"#utility.yul\":2600:2621   */\n      tag_177\n        /* \"#utility.yul\":2615:2620   */\n      dup2\n        /* \"#utility.yul\":2600:2621   */\n      tag_103\n      jump\t// in\n    tag_177:\n        /* \"#utility.yul\":2595:2598   */\n      dup3\n        /* \"#utility.yul\":2588:2622   */\n      mstore\n        /* \"#utility.yul\":2519:2628   */\n      pop\n      pop\n      jump\t// out\n        /* \"#utility.yul\":2634:3377   */\n    tag_16:\n        /* \"#utility.yul\":2853:2857   */\n      0x00\n        /* \"#utility.yul\":2891:2894   */\n      0xa0\n        /* \"#utility.yul\":2880:2889   */\n      dup3\n        /* \"#utility.yul\":2876:2895   */\n      add\n        /* \"#utility.yul\":2868:2895   */\n      swap1\n      pop\n        /* \"#utility.yul\":2905:2976   */\n      tag_179\n        /* \"#utility.yul\":2973:2974   */\n      0x00\n        /* \"#utility.yul\":2962:2971   */\n      dup4\n        /* \"#utility.yul\":2958:2975   */\n      add\n        /* \"#utility.yul\":2949:2955   */\n      dup9\n        /* \"#utility.yul\":2905:2976   */\n      tag_96\n      jump\t// in\n    tag_179:\n        /* \"#utility.yul\":3023:3032   */\n      dup2\n        /* \"#utility.yul\":3017:3021   */\n      dup2\n        /* \"#utility.yul\":3013:3033   */\n      sub\n        /* \"#utility.yul\":3008:3010   */\n      0x20\n        /* \"#utility.yul\":2997:3006   */\n      dup4\n        /* \"#utility.yul\":2993:3011   */\n      add\n        /* \"#utility.yul\":2986:3034   */\n      mstore\n        /* \"#utility.yul\":3051:3129   */\n      tag_180\n        /* \"#utility.yul\":3124:3128   */\n      dup2\n        /* \"#utility.yul\":3115:3121   */\n      dup8\n        /* \"#utility.yul\":3051:3129   */\n      tag_101\n      jump\t// in\n    tag_180:\n        /* \"#utility.yul\":3043:3129   */\n      swap1\n      pop\n        /* \"#utility.yul\":3139:3211   */\n      tag_181\n        /* \"#utility.yul\":3207:3209   */\n      0x40\n        /* \"#utility.yul\":3196:3205   */\n      dup4\n        /* \"#utility.yul\":3192:3210   */\n      add\n        /* \"#utility.yul\":3183:3189   */\n      dup7\n        /* \"#utility.yul\":3139:3211   */\n      tag_102\n      jump\t// in\n    tag_181:\n        /* \"#utility.yul\":3221:3293   */\n      tag_182\n        /* \"#utility.yul\":3289:3291   */\n      0x60\n        /* \"#utility.yul\":3278:3287   */\n      dup4\n        /* \"#utility.yul\":3274:3292   */\n      add\n        /* \"#utility.yul\":3265:3271   */\n      dup6\n        /* \"#utility.yul\":3221:3293   */\n      tag_102\n      jump\t// in\n    tag_182:\n        /* \"#utility.yul\":3303:3370   */\n      tag_183\n        /* \"#utility.yul\":3365:3368   */\n      0x80\n        /* \"#utility.yul\":3354:3363   */\n      dup4\n        /* \"#utility.yul\":3350:3369   */\n      add\n        /* \"#utility.yul\":3341:3347   */\n      dup5\n        /* \"#utility.yul\":3303:3370   */\n      tag_104\n      jump\t// in\n    tag_183:\n        /* \"#utility.yul\":2634:3377   */\n      swap7\n      swap6\n      pop\n      pop\n      pop\n      pop\n      pop\n      pop\n      jump\t// out\n        /* \"#utility.yul\":3383:3605   */\n    tag_24:\n        /* \"#utility.yul\":3476:3480   */\n      0x00\n        /* \"#utility.yul\":3514:3516   */\n      0x20\n        /* \"#utility.yul\":3503:3512   */\n      dup3\n        /* \"#utility.yul\":3499:3517   */\n      add\n        /* \"#utility.yul\":3491:3517   */\n      swap1\n      pop\n        /* \"#utility.yul\":3527:3598   */\n      tag_185\n        /* \"#utility.yul\":3595:3596   */\n      0x00\n        /* \"#utility.yul\":3584:3593   */\n      dup4\n        /* \"#utility.yul\":3580:3597   */\n      add\n        /* \"#utility.yul\":3571:3577   */\n      dup5\n        /* \"#utility.yul\":3527:3598   */\n      tag_96\n      jump\t// in\n    tag_185:\n        /* \"#utility.yul\":3383:3605   */\n      swap3\n      swap2\n      pop\n      pop\n      jump\t// out\n        /* \"#utility.yul\":3611:3833   */\n    tag_33:\n        /* \"#utility.yul\":3704:3708   */\n      0x00\n        /* \"#utility.yul\":3742:3744   */\n      0x20\n        /* \"#utility.yul\":3731:3740   */\n      dup3\n        /* \"#utility.yul\":3727:3745   */\n      add\n        /* \"#utility.yul\":3719:3745   */\n      swap1\n      pop\n        /* \"#utility.yul\":3755:3826   */\n      tag_187\n        /* \"#utility.yul\":3823:3824   */\n      0x00\n        /* \"#utility.yul\":3812:3821   */\n      dup4\n        /* \"#utility.yul\":3808:3825   */\n      add\n        /* \"#utility.yul\":3799:3805   */\n      dup5\n        /* \"#utility.yul\":3755:3826   */\n      tag_102\n      jump\t// in\n    tag_187:\n        /* \"#utility.yul\":3611:3833   */\n      swap3\n      swap2\n      pop\n      pop\n      jump\t// out\n        /* \"#utility.yul\":3839:3956   */\n    tag_105:\n        /* \"#utility.yul\":3948:3949   */\n      0x00\n        /* \"#utility.yul\":3945:3946   */\n      0x00\n        /* \"#utility.yul\":3938:3950   */\n      revert\n        /* \"#utility.yul\":3962:4079   */\n    tag_106:\n        /* \"#utility.yul\":4071:4072   */\n      0x00\n        /* \"#utility.yul\":4068:4069   */\n      0x00\n        /* \"#utility.yul\":4061:4073   */\n      revert\n        /* \"#utility.yul\":4085:4265   */\n    tag_107:\n        /* \"#utility.yul\":4133:4210   */\n      0x4e487b7100000000000000000000000000000000000000000000000000000000\n        /* \"#utility.yul\":4130:4131   */\n      0x00\n        /* \"#utility.yul\":4123:4211   */\n      mstore\n        /* \"#utility.yul\":4230:4234   */\n      0x41\n        /* \"#utility.yul\":4227:4228   */\n      0x04\n        /* \"#utility.yul\":4220:4235   */\n      mstore\n        /* \"#utility.yul\":4254:4258   */\n      0x24\n        /* \"#utility.yul\":4251:4252   */\n      0x00\n        /* \"#utility.yul\":4244:4259   */\n      revert\n        /* \"#utility.yul\":4271:4552   */\n    tag_108:\n        /* \"#utility.yul\":4354:4381   */\n      tag_192\n        /* \"#utility.yul\":4376:4380   */\n      dup3\n        /* \"#utility.yul\":4354:4381   */\n      tag_100\n      jump\t// in\n    tag_192:\n        /* \"#utility.yul\":4346:4352   */\n      dup2\n        /* \"#utility.yul\":4342:4382   */\n      add\n        /* \"#utility.yul\":4484:4490   */\n      dup2\n        /* \"#utility.yul\":4472:4482   */\n      dup2\n        /* \"#utility.yul\":4469:4491   */\n      lt\n        /* \"#utility.yul\":4448:4466   */\n      0xffffffffffffffff\n        /* \"#utility.yul\":4436:4446   */\n      dup3\n        /* \"#utility.yul\":4433:4467   */\n      gt\n        /* \"#utility.yul\":4430:4492   */\n      or\n        /* \"#utility.yul\":4427:4515   */\n      iszero\n      tag_193\n      jumpi\n        /* \"#utility.yul\":4495:4513   */\n      tag_194\n      tag_107\n      jump\t// in\n    tag_194:\n        /* \"#utility.yul\":4427:4515   */\n    tag_193:\n        /* \"#utility.yul\":4535:4545   */\n      dup1\n        /* \"#utility.yul\":4531:4533   */\n      0x40\n        /* \"#utility.yul\":4524:4546   */\n      mstore\n        /* \"#utility.yul\":4314:4552   */\n      pop\n        /* \"#utility.yul\":4271:4552   */\n      pop\n      pop\n      jump\t// out\n        /* \"#utility.yul\":4558:4687   */\n    tag_109:\n        /* \"#utility.yul\":4592:4598   */\n      0x00\n        /* \"#utility.yul\":4619:4639   */\n      tag_196\n      tag_88\n      jump\t// in\n    tag_196:\n        /* \"#utility.yul\":4609:4639   */\n      swap1\n      pop\n        /* \"#utility.yul\":4648:4681   */\n      tag_197\n        /* \"#utility.yul\":4676:4680   */\n      dup3\n        /* \"#utility.yul\":4668:4674   */\n      dup3\n        /* \"#utility.yul\":4648:4681   */\n      tag_108\n      jump\t// in\n    tag_197:\n        /* \"#utility.yul\":4558:4687   */\n      swap2\n      swap1\n      pop\n      jump\t// out\n        /* \"#utility.yul\":4693:5001   */\n    tag_110:\n        /* \"#utility.yul\":4755:4759   */\n      0x00\n        /* \"#utility.yul\":4845:4863   */\n      0xffffffffffffffff\n        /* \"#utility.yul\":4837:4843   */\n      dup3\n        /* \"#utility.yul\":4834:4864   */\n      gt\n        /* \"#utility.yul\":4831:4887   */\n      iszero\n      tag_199\n      jumpi\n        /* \"#utility.yul\":4867:4885   */\n      tag_200\n      tag_107\n      jump\t// in\n    tag_200:\n        /* \"#utility.yul\":4831:4887   */\n    tag_199:\n        /* \"#utility.yul\":4905:4934   */\n      tag_201\n        /* \"#utility.yul\":4927:4933   */\n      dup3\n        /* \"#utility.yul\":4905:4934   */\n      tag_100\n      jump\t// in\n    tag_201:\n        /* \"#utility.yul\":4897:4934   */\n      swap1\n      pop\n        /* \"#utility.yul\":4989:4993   */\n      0x20\n        /* \"#utility.yul\":4983:4987   */\n      dup2\n        /* \"#utility.yul\":4979:4994   */\n      add\n        /* \"#utility.yul\":4971:4994   */\n      swap1\n      pop\n        /* \"#utility.yul\":4693:5001   */\n      swap2\n      swap1\n      pop\n      jump\t// out\n        /* \"#utility.yul\":5007:5155   */\n    tag_111:\n        /* \"#utility.yul\":5105:5111   */\n      dup3\n        /* \"#utility.yul\":5100:5103   */\n      dup2\n        /* \"#utility.yul\":5095:5098   */\n      dup4\n        /* \"#utility.yul\":5082:5112   */\n      calldatacopy\n        /* \"#utility.yul\":5146:5147   */\n      0x00\n        /* \"#utility.yul\":5137:5143   */\n      dup4\n        /* \"#utility.yul\":5132:5135   */\n      dup4\n        /* \"#utility.yul\":5128:5144   */\n      add\n        /* \"#utility.yul\":5121:5148   */\n      mstore\n        /* \"#utility.yul\":5007:5155   */\n      pop\n      pop\n      pop\n      jump\t// out\n        /* \"#utility.yul\":5161:5586   */\n    tag_112:\n        /* \"#utility.yul\":5239:5244   */\n      0x00\n        /* \"#utility.yul\":5264:5330   */\n      tag_204\n        /* \"#utility.yul\":5280:5329   */\n      tag_205\n        /* \"#utility.yul\":5322:5328   */\n      dup5\n        /* \"#utility.yul\":5280:5329   */\n      tag_110\n      jump\t// in\n    tag_205:\n        /* \"#utility.yul\":5264:5330   */\n      tag_109\n      jump\t// in\n    tag_204:\n        /* \"#utility.yul\":5255:5330   */\n      swap1\n      pop\n        /* \"#utility.yul\":5353:5359   */\n      dup3\n        /* \"#utility.yul\":5346:5351   */\n      dup2\n        /* \"#utility.yul\":5339:5360   */\n      mstore\n        /* \"#utility.yul\":5391:5395   */\n      0x20\n        /* \"#utility.yul\":5384:5389   */\n      dup2\n        /* \"#utility.yul\":5380:5396   */\n      add\n        /* \"#utility.yul\":5429:5432   */\n      dup5\n        /* \"#utility.yul\":5420:5426   */\n      dup5\n        /* \"#utility.yul\":5415:5418   */\n      dup5\n        /* \"#utility.yul\":5411:5427   */\n      add\n        /* \"#utility.yul\":5408:5433   */\n      gt\n        /* \"#utility.yul\":5405:5517   */\n      iszero\n      tag_206\n      jumpi\n        /* \"#utility.yul\":5436:5515   */\n      tag_207\n      tag_106\n      jump\t// in\n    tag_207:\n        /* \"#utility.yul\":5405:5517   */\n    tag_206:\n        /* \"#utility.yul\":5526:5580   */\n      tag_208\n        /* \"#utility.yul\":5573:5579   */\n      dup5\n        /* \"#utility.yul\":5568:5571   */\n      dup3\n        /* \"#utility.yul\":5563:5566   */\n      dup6\n        /* \"#utility.yul\":5526:5580   */\n      tag_111\n      jump\t// in\n    tag_208:\n        /* \"#utility.yul\":5245:5586   */\n      pop\n        /* \"#utility.yul\":5161:5586   */\n      swap4\n      swap3\n      pop\n      pop\n      pop\n      jump\t// out\n        /* \"#utility.yul\":5606:5946   */\n    tag_113:\n        /* \"#utility.yul\":5662:5667   */\n      0x00\n        /* \"#utility.yul\":5711:5714   */\n      dup3\n        /* \"#utility.yul\":5704:5708   */\n      0x1f\n        /* \"#utility.yul\":5696:5702   */\n      dup4\n        /* \"#utility.yul\":5692:5709   */\n      add\n        /* \"#utility.yul\":5688:5715   */\n      slt\n        /* \"#utility.yul\":5678:5800   */\n      tag_210\n      jumpi\n        /* \"#utility.yul\":5719:5798   */\n      tag_211\n      tag_105\n      jump\t// in\n    tag_211:\n        /* \"#utility.yul\":5678:5800   */\n    tag_210:\n        /* \"#utility.yul\":5836:5842   */\n      dup2\n        /* \"#utility.yul\":5823:5843   */\n      calldataload\n        /* \"#utility.yul\":5861:5940   */\n      tag_212\n        /* \"#utility.yul\":5936:5939   */\n      dup5\n        /* \"#utility.yul\":5928:5934   */\n      dup3\n        /* \"#utility.yul\":5921:5925   */\n      0x20\n        /* \"#utility.yul\":5913:5919   */\n      dup7\n        /* \"#utility.yul\":5909:5926   */\n      add\n        /* \"#utility.yul\":5861:5940   */\n      tag_112\n      jump\t// in\n    tag_212:\n        /* \"#utility.yul\":5852:5940   */\n      swap2\n      pop\n        /* \"#utility.yul\":5668:5946   */\n      pop\n        /* \"#utility.yul\":5606:5946   */\n      swap3\n      swap2\n      pop\n      pop\n      jump\t// out\n        /* \"#utility.yul\":5952:6606   */\n    tag_40:\n        /* \"#utility.yul\":6030:6036   */\n      0x00\n        /* \"#utility.yul\":6038:6044   */\n      0x00\n        /* \"#utility.yul\":6087:6089   */\n      0x40\n        /* \"#utility.yul\":6075:6084   */\n      dup4\n        /* \"#utility.yul\":6066:6073   */\n      dup6\n        /* \"#utility.yul\":6062:6085   */\n      sub\n        /* \"#utility.yul\":6058:6090   */\n      slt\n        /* \"#utility.yul\":6055:6174   */\n      iszero\n      tag_214\n      jumpi\n        /* \"#utility.yul\":6093:6172   */\n      tag_215\n      tag_89\n      jump\t// in\n    tag_215:\n        /* \"#utility.yul\":6055:6174   */\n    tag_214:\n        /* \"#utility.yul\":6241:6242   */\n      0x00\n        /* \"#utility.yul\":6230:6239   */\n      dup4\n        /* \"#utility.yul\":6226:6243   */\n      add\n        /* \"#utility.yul\":6213:6244   */\n      calldataload\n        /* \"#utility.yul\":6271:6289   */\n      0xffffffffffffffff\n        /* \"#utility.yul\":6263:6269   */\n      dup2\n        /* \"#utility.yul\":6260:6290   */\n      gt\n        /* \"#utility.yul\":6257:6374   */\n      iszero\n      tag_216\n      jumpi\n        /* \"#utility.yul\":6293:6372   */\n      tag_217\n      tag_90\n      jump\t// in\n    tag_217:\n        /* \"#utility.yul\":6257:6374   */\n    tag_216:\n        /* \"#utility.yul\":6398:6461   */\n      tag_218\n        /* \"#utility.yul\":6453:6460   */\n      dup6\n        /* \"#utility.yul\":6444:6450   */\n      dup3\n        /* \"#utility.yul\":6433:6442   */\n      dup7\n        /* \"#utility.yul\":6429:6451   */\n      add\n        /* \"#utility.yul\":6398:6461   */\n      tag_113\n      jump\t// in\n    tag_218:\n        /* \"#utility.yul\":6388:6461   */\n      swap3\n      pop\n        /* \"#utility.yul\":6184:6471   */\n      pop\n        /* \"#utility.yul\":6510:6512   */\n      0x20\n        /* \"#utility.yul\":6536:6589   */\n      tag_219\n        /* \"#utility.yul\":6581:6588   */\n      dup6\n        /* \"#utility.yul\":6572:6578   */\n      dup3\n        /* \"#utility.yul\":6561:6570   */\n      dup7\n        /* \"#utility.yul\":6557:6579   */\n      add\n        /* \"#utility.yul\":6536:6589   */\n      tag_93\n      jump\t// in\n    tag_219:\n        /* \"#utility.yul\":6526:6589   */\n      swap2\n      pop\n        /* \"#utility.yul\":6481:6599   */\n      pop\n        /* \"#utility.yul\":5952:6606   */\n      swap3\n      pop\n      swap3\n      swap1\n      pop\n      jump\t// out\n        /* \"#utility.yul\":6612:6792   */\n    tag_114:\n        /* \"#utility.yul\":6660:6737   */\n      0x4e487b7100000000000000000000000000000000000000000000000000000000\n        /* \"#utility.yul\":6657:6658   */\n      0x00\n        /* \"#utility.yul\":6650:6738   */\n      mstore\n        /* \"#utility.yul\":6757:6761   */\n      0x22\n        /* \"#utility.yul\":6754:6755   */\n      0x04\n        /* \"#utility.yul\":6747:6762   */\n      mstore\n        /* \"#utility.yul\":6781:6785   */\n      0x24\n        /* \"#utility.yul\":6778:6779   */\n      0x00\n        /* \"#utility.yul\":6771:6786   */\n      revert\n        /* \"#utility.yul\":6798:7118   */\n    tag_45:\n        /* \"#utility.yul\":6842:6848   */\n      0x00\n        /* \"#utility.yul\":6879:6880   */\n      0x02\n        /* \"#utility.yul\":6873:6877   */\n      dup3\n        /* \"#utility.yul\":6869:6881   */\n      div\n        /* \"#utility.yul\":6859:6881   */\n      swap1\n      pop\n        /* \"#utility.yul\":6926:6927   */\n      0x01\n        /* \"#utility.yul\":6920:6924   */\n      dup3\n        /* \"#utility.yul\":6916:6928   */\n      and\n        /* \"#utility.yul\":6947:6965   */\n      dup1\n        /* \"#utility.yul\":6937:7018   */\n      tag_222\n      jumpi\n        /* \"#utility.yul\":7003:7007   */\n      0x7f\n        /* \"#utility.yul\":6995:7001   */\n      dup3\n        /* \"#utility.yul\":6991:7008   */\n      and\n        /* \"#utility.yul\":6981:7008   */\n      swap2\n      pop\n        /* \"#utility.yul\":6937:7018   */\n    tag_222:\n        /* \"#utility.yul\":7065:7067   */\n      0x20\n        /* \"#utility.yul\":7057:7063   */\n      dup3\n        /* \"#utility.yul\":7054:7068   */\n      lt\n        /* \"#utility.yul\":7034:7052   */\n      dup2\n        /* \"#utility.yul\":7031:7069   */\n      sub\n        /* \"#utility.yul\":7028:7112   */\n      tag_223\n      jumpi\n        /* \"#utility.yul\":7084:7102   */\n      tag_224\n      tag_114\n      jump\t// in\n    tag_224:\n        /* \"#utility.yul\":7028:7112   */\n    tag_223:\n        /* \"#utility.yul\":6849:7118   */\n      pop\n        /* \"#utility.yul\":6798:7118   */\n      swap2\n      swap1\n      pop\n      jump\t// out\n        /* \"#utility.yul\":7124:7283   */\n    tag_115:\n        /* \"#utility.yul\":7264:7275   */\n      0x4e6f74206f776e65720000000000000000000000000000000000000000000000\n        /* \"#utility.yul\":7260:7261   */\n      0x00\n        /* \"#utility.yul\":7252:7258   */\n      dup3\n        /* \"#utility.yul\":7248:7262   */\n      add\n        /* \"#utility.yul\":7241:7276   */\n      mstore\n        /* \"#utility.yul\":7124:7283   */\n      pop\n      jump\t// out\n        /* \"#utility.yul\":7289:7654   */\n    tag_116:\n        /* \"#utility.yul\":7431:7434   */\n      0x00\n        /* \"#utility.yul\":7452:7518   */\n      tag_227\n        /* \"#utility.yul\":7516:7517   */\n      0x09\n        /* \"#utility.yul\":7511:7514   */\n      dup4\n        /* \"#utility.yul\":7452:7518   */\n      tag_98\n      jump\t// in\n    tag_227:\n        /* \"#utility.yul\":7445:7518   */\n      swap2\n      pop\n        /* \"#utility.yul\":7527:7620   */\n      tag_228\n        /* \"#utility.yul\":7616:7619   */\n      dup3\n        /* \"#utility.yul\":7527:7620   */\n      tag_115\n      jump\t// in\n    tag_228:\n        /* \"#utility.yul\":7645:7647   */\n      0x20\n        /* \"#utility.yul\":7640:7643   */\n      dup3\n        /* \"#utility.yul\":7636:7648   */\n      add\n        /* \"#utility.yul\":7629:7648   */\n      swap1\n      pop\n        /* \"#utility.yul\":7289:7654   */\n      swap2\n      swap1\n      pop\n      jump\t// out\n        /* \"#utility.yul\":7660:8079   */\n    tag_53:\n        /* \"#utility.yul\":7826:7830   */\n      0x00\n        /* \"#utility.yul\":7864:7866   */\n      0x20\n        /* \"#utility.yul\":7853:7862   */\n      dup3\n        /* \"#utility.yul\":7849:7867   */\n      add\n        /* \"#utility.yul\":7841:7867   */\n      swap1\n      pop\n        /* \"#utility.yul\":7913:7922   */\n      dup2\n        /* \"#utility.yul\":7907:7911   */\n      dup2\n        /* \"#utility.yul\":7903:7923   */\n      sub\n        /* \"#utility.yul\":7899:7900   */\n      0x00\n        /* \"#utility.yul\":7888:7897   */\n      dup4\n        /* \"#utility.yul\":7884:7901   */\n      add\n        /* \"#utility.yul\":7877:7924   */\n      mstore\n        /* \"#utility.yul\":7941:8072   */\n      tag_230\n        /* \"#utility.yul\":8067:8071   */\n      dup2\n        /* \"#utility.yul\":7941:8072   */\n      tag_116\n      jump\t// in\n    tag_230:\n        /* \"#utility.yul\":7933:8072   */\n      swap1\n      pop\n        /* \"#utility.yul\":7660:8079   */\n      swap2\n      swap1\n      pop\n      jump\t// out\n        /* \"#utility.yul\":8085:8232   */\n    tag_117:\n        /* \"#utility.yul\":8186:8197   */\n      0x00\n        /* \"#utility.yul\":8223:8226   */\n      dup2\n        /* \"#utility.yul\":8208:8226   */\n      swap1\n      pop\n        /* \"#utility.yul\":8085:8232   */\n      swap3\n      swap2\n      pop\n      pop\n      jump\t// out\n        /* \"#utility.yul\":8238:8352   */\n    tag_118:\n      pop\n      jump\t// out\n        /* \"#utility.yul\":8358:8756   */\n    tag_119:\n        /* \"#utility.yul\":8517:8520   */\n      0x00\n        /* \"#utility.yul\":8538:8621   */\n      tag_234\n        /* \"#utility.yul\":8619:8620   */\n      0x00\n        /* \"#utility.yul\":8614:8617   */\n      dup4\n        /* \"#utility.yul\":8538:8621   */\n      tag_117\n      jump\t// in\n    tag_234:\n        /* \"#utility.yul\":8531:8621   */\n      swap2\n      pop\n        /* \"#utility.yul\":8630:8723   */\n      tag_235\n        /* \"#utility.yul\":8719:8722   */\n      dup3\n        /* \"#utility.yul\":8630:8723   */\n      tag_118\n      jump\t// in\n    tag_235:\n        /* \"#utility.yul\":8748:8749   */\n      0x00\n        /* \"#utility.yul\":8743:8746   */\n      dup3\n        /* \"#utility.yul\":8739:8750   */\n      add\n        /* \"#utility.yul\":8732:8750   */\n      swap1\n      pop\n        /* \"#utility.yul\":8358:8756   */\n      swap2\n      swap1\n      pop\n      jump\t// out\n        /* \"#utility.yul\":8762:9141   */\n    tag_55:\n        /* \"#utility.yul\":8946:8949   */\n      0x00\n        /* \"#utility.yul\":8968:9115   */\n      tag_237\n        /* \"#utility.yul\":9111:9114   */\n      dup3\n        /* \"#utility.yul\":8968:9115   */\n      tag_119\n      jump\t// in\n    tag_237:\n        /* \"#utility.yul\":8961:9115   */\n      swap2\n      pop\n        /* \"#utility.yul\":9132:9135   */\n      dup2\n        /* \"#utility.yul\":9125:9135   */\n      swap1\n      pop\n        /* \"#utility.yul\":8762:9141   */\n      swap2\n      swap1\n      pop\n      jump\t// out\n        /* \"#utility.yul\":9147:9319   */\n    tag_120:\n        /* \"#utility.yul\":9287:9311   */\n      0x5472616e73666572206661696c6564206661696c656400000000000000000000\n        /* \"#utility.yul\":9283:9284   */\n      0x00\n        /* \"#utility.yul\":9275:9281   */\n      dup3\n        /* \"#utility.yul\":9271:9285   */\n      add\n        /* \"#utility.yul\":9264:9312   */\n      mstore\n        /* \"#utility.yul\":9147:9319   */\n      pop\n      jump\t// out\n        /* \"#utility.yul\":9325:9691   */\n    tag_121:\n        /* \"#utility.yul\":9467:9470   */\n      0x00\n        /* \"#utility.yul\":9488:9555   */\n      tag_240\n        /* \"#utility.yul\":9552:9554   */\n      0x16\n        /* \"#utility.yul\":9547:9550   */\n      dup4\n        /* \"#utility.yul\":9488:9555   */\n      tag_98\n      jump\t// in\n    tag_240:\n        /* \"#utility.yul\":9481:9555   */\n      swap2\n      pop\n        /* \"#utility.yul\":9564:9657   */\n      tag_241\n        /* \"#utility.yul\":9653:9656   */\n      dup3\n        /* \"#utility.yul\":9564:9657   */\n      tag_120\n      jump\t// in\n    tag_241:\n        /* \"#utility.yul\":9682:9684   */\n      0x20\n        /* \"#utility.yul\":9677:9680   */\n      dup3\n        /* \"#utility.yul\":9673:9685   */\n      add\n        /* \"#utility.yul\":9666:9685   */\n      swap1\n      pop\n        /* \"#utility.yul\":9325:9691   */\n      swap2\n      swap1\n      pop\n      jump\t// out\n        /* \"#utility.yul\":9697:10116   */\n    tag_61:\n        /* \"#utility.yul\":9863:9867   */\n      0x00\n        /* \"#utility.yul\":9901:9903   */\n      0x20\n        /* \"#utility.yul\":9890:9899   */\n      dup3\n        /* \"#utility.yul\":9886:9904   */\n      add\n        /* \"#utility.yul\":9878:9904   */\n      swap1\n      pop\n        /* \"#utility.yul\":9950:9959   */\n      dup2\n        /* \"#utility.yul\":9944:9948   */\n      dup2\n        /* \"#utility.yul\":9940:9960   */\n      sub\n        /* \"#utility.yul\":9936:9937   */\n      0x00\n        /* \"#utility.yul\":9925:9934   */\n      dup4\n        /* \"#utility.yul\":9921:9938   */\n      add\n        /* \"#utility.yul\":9914:9961   */\n      mstore\n        /* \"#utility.yul\":9978:10109   */\n      tag_243\n        /* \"#utility.yul\":10104:10108   */\n      dup2\n        /* \"#utility.yul\":9978:10109   */\n      tag_121\n      jump\t// in\n    tag_243:\n        /* \"#utility.yul\":9970:10109   */\n      swap1\n      pop\n        /* \"#utility.yul\":9697:10116   */\n      swap2\n      swap1\n      pop\n      jump\t// out\n        /* \"#utility.yul\":10122:10302   */\n    tag_65:\n        /* \"#utility.yul\":10170:10247   */\n      0x4e487b7100000000000000000000000000000000000000000000000000000000\n        /* \"#utility.yul\":10167:10168   */\n      0x00\n        /* \"#utility.yul\":10160:10248   */\n      mstore\n        /* \"#utility.yul\":10267:10271   */\n      0x32\n        /* \"#utility.yul\":10264:10265   */\n      0x04\n        /* \"#utility.yul\":10257:10272   */\n      mstore\n        /* \"#utility.yul\":10291:10295   */\n      0x24\n        /* \"#utility.yul\":10288:10289   */\n      0x00\n        /* \"#utility.yul\":10281:10296   */\n      revert\n        /* \"#utility.yul\":10308:10478   */\n    tag_122:\n        /* \"#utility.yul\":10448:10470   */\n      0x4e6f7420796f7572207265736572766174696f6e000000000000000000000000\n        /* \"#utility.yul\":10444:10445   */\n      0x00\n        /* \"#utility.yul\":10436:10442   */\n      dup3\n        /* \"#utility.yul\":10432:10446   */\n      add\n        /* \"#utility.yul\":10425:10471   */\n      mstore\n        /* \"#utility.yul\":10308:10478   */\n      pop\n      jump\t// out\n        /* \"#utility.yul\":10484:10850   */\n    tag_123:\n        /* \"#utility.yul\":10626:10629   */\n      0x00\n        /* \"#utility.yul\":10647:10714   */\n      tag_247\n        /* \"#utility.yul\":10711:10713   */\n      0x14\n        /* \"#utility.yul\":10706:10709   */\n      dup4\n        /* \"#utility.yul\":10647:10714   */\n      tag_98\n      jump\t// in\n    tag_247:\n        /* \"#utility.yul\":10640:10714   */\n      swap2\n      pop\n        /* \"#utility.yul\":10723:10816   */\n      tag_248\n        /* \"#utility.yul\":10812:10815   */\n      dup3\n        /* \"#utility.yul\":10723:10816   */\n      tag_122\n      jump\t// in\n    tag_248:\n        /* \"#utility.yul\":10841:10843   */\n      0x20\n        /* \"#utility.yul\":10836:10839   */\n      dup3\n        /* \"#utility.yul\":10832:10844   */\n      add\n        /* \"#utility.yul\":10825:10844   */\n      swap1\n      pop\n        /* \"#utility.yul\":10484:10850   */\n      swap2\n      swap1\n      pop\n      jump\t// out\n        /* \"#utility.yul\":10856:11275   */\n    tag_69:\n        /* \"#utility.yul\":11022:11026   */\n      0x00\n        /* \"#utility.yul\":11060:11062   */\n      0x20\n        /* \"#utility.yul\":11049:11058   */\n      dup3\n        /* \"#utility.yul\":11045:11063   */\n      add\n        /* \"#utility.yul\":11037:11063   */\n      swap1\n      pop\n        /* \"#utility.yul\":11109:11118   */\n      dup2\n        /* \"#utility.yul\":11103:11107   */\n      dup2\n        /* \"#utility.yul\":11099:11119   */\n      sub\n        /* \"#utility.yul\":11095:11096   */\n      0x00\n        /* \"#utility.yul\":11084:11093   */\n      dup4\n        /* \"#utility.yul\":11080:11097   */\n      add\n        /* \"#utility.yul\":11073:11120   */\n      mstore\n        /* \"#utility.yul\":11137:11268   */\n      tag_250\n        /* \"#utility.yul\":11263:11267   */\n      dup2\n        /* \"#utility.yul\":11137:11268   */\n      tag_123\n      jump\t// in\n    tag_250:\n        /* \"#utility.yul\":11129:11268   */\n      swap1\n      pop\n        /* \"#utility.yul\":10856:11275   */\n      swap2\n      swap1\n      pop\n      jump\t// out\n        /* \"#utility.yul\":11281:11448   */\n    tag_124:\n        /* \"#utility.yul\":11421:11440   */\n      0x416c72656164792063616e63656c6c6564000000000000000000000000000000\n        /* \"#utility.yul\":11417:11418   */\n      0x00\n        /* \"#utility.yul\":11409:11415   */\n      dup3\n        /* \"#utility.yul\":11405:11419   */\n      add\n        /* \"#utility.yul\":11398:11441   */\n      mstore\n        /* \"#utility.yul\":11281:11448   */\n      pop\n      jump\t// out\n        /* \"#utility.yul\":11454:11820   */\n    tag_125:\n        /* \"#utility.yul\":11596:11599   */\n      0x00\n        /* \"#utility.yul\":11617:11684   */\n      tag_253\n        /* \"#utility.yul\":11681:11683   */\n      0x11\n        /* \"#utility.yul\":11676:11679   */\n      dup4\n        /* \"#utility.yul\":11617:11684   */\n      tag_98\n      jump\t// in\n    tag_253:\n        /* \"#utility.yul\":11610:11684   */\n      swap2\n      pop\n        /* \"#utility.yul\":11693:11786   */\n      tag_254\n        /* \"#utility.yul\":11782:11785   */\n      dup3\n        /* \"#utility.yul\":11693:11786   */\n      tag_124\n      jump\t// in\n    tag_254:\n        /* \"#utility.yul\":11811:11813   */\n      0x20\n        /* \"#utility.yul\":11806:11809   */\n      dup3\n        /* \"#utility.yul\":11802:11814   */\n      add\n        /* \"#utility.yul\":11795:11814   */\n      swap1\n      pop\n        /* \"#utility.yul\":11454:11820   */\n      swap2\n      swap1\n      pop\n      jump\t// out\n        /* \"#utility.yul\":11826:12245   */\n    tag_72:\n        /* \"#utility.yul\":11992:11996   */\n      0x00\n        /* \"#utility.yul\":12030:12032   */\n      0x20\n        /* \"#utility.yul\":12019:12028   */\n      dup3\n        /* \"#utility.yul\":12015:12033   */\n      add\n        /* \"#utility.yul\":12007:12033   */\n      swap1\n      pop\n        /* \"#utility.yul\":12079:12088   */\n      dup2\n        /* \"#utility.yul\":12073:12077   */\n      dup2\n        /* \"#utility.yul\":12069:12089   */\n      sub\n        /* \"#utility.yul\":12065:12066   */\n      0x00\n        /* \"#utility.yul\":12054:12063   */\n      dup4\n        /* \"#utility.yul\":12050:12067   */\n      add\n        /* \"#utility.yul\":12043:12090   */\n      mstore\n        /* \"#utility.yul\":12107:12238   */\n      tag_256\n        /* \"#utility.yul\":12233:12237   */\n      dup2\n        /* \"#utility.yul\":12107:12238   */\n      tag_125\n      jump\t// in\n    tag_256:\n        /* \"#utility.yul\":12099:12238   */\n      swap1\n      pop\n        /* \"#utility.yul\":11826:12245   */\n      swap2\n      swap1\n      pop\n      jump\t// out\n        /* \"#utility.yul\":12251:12416   */\n    tag_126:\n        /* \"#utility.yul\":12391:12408   */\n      0x5472616e73666572206661696c65640000000000000000000000000000000000\n        /* \"#utility.yul\":12387:12388   */\n      0x00\n        /* \"#utility.yul\":12379:12385   */\n      dup3\n        /* \"#utility.yul\":12375:12389   */\n      add\n        /* \"#utility.yul\":12368:12409   */\n      mstore\n        /* \"#utility.yul\":12251:12416   */\n      pop\n      jump\t// out\n        /* \"#utility.yul\":12422:12788   */\n    tag_127:\n        /* \"#utility.yul\":12564:12567   */\n      0x00\n        /* \"#utility.yul\":12585:12652   */\n      tag_259\n        /* \"#utility.yul\":12649:12651   */\n      0x0f\n        /* \"#utility.yul\":12644:12647   */\n      dup4\n        /* \"#utility.yul\":12585:12652   */\n      tag_98\n      jump\t// in\n    tag_259:\n        /* \"#utility.yul\":12578:12652   */\n      swap2\n      pop\n        /* \"#utility.yul\":12661:12754   */\n      tag_260\n        /* \"#utility.yul\":12750:12753   */\n      dup3\n        /* \"#utility.yul\":12661:12754   */\n      tag_126\n      jump\t// in\n    tag_260:\n        /* \"#utility.yul\":12779:12781   */\n      0x20\n        /* \"#utility.yul\":12774:12777   */\n      dup3\n        /* \"#utility.yul\":12770:12782   */\n      add\n        /* \"#utility.yul\":12763:12782   */\n      swap1\n      pop\n        /* \"#utility.yul\":12422:12788   */\n      swap2\n      swap1\n      pop\n      jump\t// out\n        /* \"#utility.yul\":12794:13213   */\n    tag_79:\n        /* \"#utility.yul\":12960:12964   */\n      0x00\n        /* \"#utility.yul\":12998:13000   */\n      0x20\n        /* \"#utility.yul\":12987:12996   */\n      dup3\n        /* \"#utility.yul\":12983:13001   */\n      add\n        /* \"#utility.yul\":12975:13001   */\n      swap1\n      pop\n        /* \"#utility.yul\":13047:13056   */\n      dup2\n        /* \"#utility.yul\":13041:13045   */\n      dup2\n        /* \"#utility.yul\":13037:13057   */\n      sub\n        /* \"#utility.yul\":13033:13034   */\n      0x00\n        /* \"#utility.yul\":13022:13031   */\n      dup4\n        /* \"#utility.yul\":13018:13035   */\n      add\n        /* \"#utility.yul\":13011:13058   */\n      mstore\n        /* \"#utility.yul\":13075:13206   */\n      tag_262\n        /* \"#utility.yul\":13201:13205   */\n      dup2\n        /* \"#utility.yul\":13075:13206   */\n      tag_127\n      jump\t// in\n    tag_262:\n        /* \"#utility.yul\":13067:13206   */\n      swap1\n      pop\n        /* \"#utility.yul\":12794:13213   */\n      swap2\n      swap1\n      pop\n      jump\t// out\n        /* \"#utility.yul\":13219:13383   */\n    tag_128:\n        /* \"#utility.yul\":13359:13375   */\n      0x4e6f7420656e6f75676820455448000000000000000000000000000000000000\n        /* \"#utility.yul\":13355:13356   */\n      0x00\n        /* \"#utility.yul\":13347:13353   */\n      dup3\n        /* \"#utility.yul\":13343:13357   */\n      add\n        /* \"#utility.yul\":13336:13376   */\n      mstore\n        /* \"#utility.yul\":13219:13383   */\n      pop\n      jump\t// out\n        /* \"#utility.yul\":13389:13755   */\n    tag_129:\n        /* \"#utility.yul\":13531:13534   */\n      0x00\n        /* \"#utility.yul\":13552:13619   */\n      tag_265\n        /* \"#utility.yul\":13616:13618   */\n      0x0e\n        /* \"#utility.yul\":13611:13614   */\n      dup4\n        /* \"#utility.yul\":13552:13619   */\n      tag_98\n      jump\t// in\n    tag_265:\n        /* \"#utility.yul\":13545:13619   */\n      swap2\n      pop\n        /* \"#utility.yul\":13628:13721   */\n      tag_266\n        /* \"#utility.yul\":13717:13720   */\n      dup3\n        /* \"#utility.yul\":13628:13721   */\n      tag_128\n      jump\t// in\n    tag_266:\n        /* \"#utility.yul\":13746:13748   */\n      0x20\n        /* \"#utility.yul\":13741:13744   */\n      dup3\n        /* \"#utility.yul\":13737:13749   */\n      add\n        /* \"#utility.yul\":13730:13749   */\n      swap1\n      pop\n        /* \"#utility.yul\":13389:13755   */\n      swap2\n      swap1\n      pop\n      jump\t// out\n        /* \"#utility.yul\":13761:14180   */\n    tag_84:\n        /* \"#utility.yul\":13927:13931   */\n      0x00\n        /* \"#utility.yul\":13965:13967   */\n      0x20\n        /* \"#utility.yul\":13954:13963   */\n      dup3\n        /* \"#utility.yul\":13950:13968   */\n      add\n        /* \"#utility.yul\":13942:13968   */\n      swap1\n      pop\n        /* \"#utility.yul\":14014:14023   */\n      dup2\n        /* \"#utility.yul\":14008:14012   */\n      dup2\n        /* \"#utility.yul\":14004:14024   */\n      sub\n        /* \"#utility.yul\":14000:14001   */\n      0x00\n        /* \"#utility.yul\":13989:13998   */\n      dup4\n        /* \"#utility.yul\":13985:14002   */\n      add\n        /* \"#utility.yul\":13978:14025   */\n      mstore\n        /* \"#utility.yul\":14042:14173   */\n      tag_268\n        /* \"#utility.yul\":14168:14172   */\n      dup2\n        /* \"#utility.yul\":14042:14173   */\n      tag_129\n      jump\t// in\n    tag_268:\n        /* \"#utility.yul\":14034:14173   */\n      swap1\n      pop\n        /* \"#utility.yul\":13761:14180   */\n      swap2\n      swap1\n      pop\n      jump\t// out\n        /* \"#utility.yul\":14186:14327   */\n    tag_130:\n        /* \"#utility.yul\":14235:14239   */\n      0x00\n        /* \"#utility.yul\":14258:14261   */\n      dup2\n        /* \"#utility.yul\":14250:14261   */\n      swap1\n      pop\n        /* \"#utility.yul\":14281:14284   */\n      dup2\n        /* \"#utility.yul\":14278:14279   */\n      0x00\n        /* \"#utility.yul\":14271:14285   */\n      mstore\n        /* \"#utility.yul\":14315:14319   */\n      0x20\n        /* \"#utility.yul\":14312:14313   */\n      0x00\n        /* \"#utility.yul\":14302:14320   */\n      keccak256\n        /* \"#utility.yul\":14294:14320   */\n      swap1\n      pop\n        /* \"#utility.yul\":14186:14327   */\n      swap2\n      swap1\n      pop\n      jump\t// out\n        /* \"#utility.yul\":14333:14426   */\n    tag_131:\n        /* \"#utility.yul\":14370:14376   */\n      0x00\n        /* \"#utility.yul\":14417:14419   */\n      0x20\n        /* \"#utility.yul\":14412:14414   */\n      0x1f\n        /* \"#utility.yul\":14405:14410   */\n      dup4\n        /* \"#utility.yul\":14401:14415   */\n      add\n        /* \"#utility.yul\":14397:14420   */\n      div\n        /* \"#utility.yul\":14387:14420   */\n      swap1\n      pop\n        /* \"#utility.yul\":14333:14426   */\n      swap2\n      swap1\n      pop\n      jump\t// out\n        /* \"#utility.yul\":14432:14539   */\n    tag_132:\n        /* \"#utility.yul\":14476:14484   */\n      0x00\n        /* \"#utility.yul\":14526:14531   */\n      dup3\n        /* \"#utility.yul\":14520:14524   */\n      dup3\n        /* \"#utility.yul\":14516:14532   */\n      shl\n        /* \"#utility.yul\":14495:14532   */\n      swap1\n      pop\n        /* \"#utility.yul\":14432:14539   */\n      swap3\n      swap2\n      pop\n      pop\n      jump\t// out\n        /* \"#utility.yul\":14545:14938   */\n    tag_133:\n        /* \"#utility.yul\":14614:14620   */\n      0x00\n        /* \"#utility.yul\":14664:14665   */\n      0x08\n        /* \"#utility.yul\":14652:14662   */\n      dup4\n        /* \"#utility.yul\":14648:14666   */\n      mul\n        /* \"#utility.yul\":14687:14784   */\n      tag_273\n        /* \"#utility.yul\":14717:14783   */\n      0xffffffffffffffffffffffffffffffffffffffffffffffffffffffffffffffff\n        /* \"#utility.yul\":14706:14715   */\n      dup3\n        /* \"#utility.yul\":14687:14784   */\n      tag_132\n      jump\t// in\n    tag_273:\n        /* \"#utility.yul\":14805:14844   */\n      tag_274\n        /* \"#utility.yul\":14835:14843   */\n      dup7\n        /* \"#utility.yul\":14824:14833   */\n      dup4\n        /* \"#utility.yul\":14805:14844   */\n      tag_132\n      jump\t// in\n    tag_274:\n        /* \"#utility.yul\":14793:14844   */\n      swap6\n      pop\n        /* \"#utility.yul\":14877:14881   */\n      dup1\n        /* \"#utility.yul\":14873:14882   */\n      not\n        /* \"#utility.yul\":14866:14871   */\n      dup5\n        /* \"#utility.yul\":14862:14883   */\n      and\n        /* \"#utility.yul\":14853:14883   */\n      swap4\n      pop\n        /* \"#utility.yul\":14926:14930   */\n      dup1\n        /* \"#utility.yul\":14916:14924   */\n      dup7\n        /* \"#utility.yul\":14912:14931   */\n      and\n        /* \"#utility.yul\":14905:14910   */\n      dup5\n        /* \"#utility.yul\":14902:14932   */\n      or\n        /* \"#utility.yul\":14892:14932   */\n      swap3\n      pop\n        /* \"#utility.yul\":14621:14938   */\n      pop\n      pop\n        /* \"#utility.yul\":14545:14938   */\n      swap4\n      swap3\n      pop\n      pop\n      pop\n      jump\t// out\n        /* \"#utility.yul\":14944:15004   */\n    tag_134:\n        /* \"#utility.yul\":14972:14975   */\n      0x00\n        /* \"#utility.yul\":14993:14998   */\n      dup2\n        /* \"#utility.yul\":14986:14998   */\n      swap1\n      pop\n        /* \"#utility.yul\":14944:15004   */\n      swap2\n      swap1\n      pop\n      jump\t// out\n        /* \"#utility.yul\":15010:15152   */\n    tag_135:\n        /* \"#utility.yul\":15060:15069   */\n      0x00\n        /* \"#utility.yul\":15093:15146   */\n      tag_277\n        /* \"#utility.yul\":15111:15145   */\n      tag_278\n        /* \"#utility.yul\":15120:15144   */\n      tag_279\n        /* \"#utility.yul\":15138:15143   */\n      dup5\n        /* \"#utility.yul\":15120:15144   */\n      tag_91\n      jump\t// in\n    tag_279:\n        /* \"#utility.yul\":15111:15145   */\n      tag_134\n      jump\t// in\n    tag_278:\n        /* \"#utility.yul\":15093:15146   */\n      tag_91\n      jump\t// in\n    tag_277:\n        /* \"#utility.yul\":15080:15146   */\n      swap1\n      pop\n        /* \"#utility.yul\":15010:15152   */\n      swap2\n      swap1\n      pop\n      jump\t// out\n        /* \"#utility.yul\":15158:15233   */\n    tag_136:\n        /* \"#utility.yul\":15201:15204   */\n      0x00\n        /* \"#utility.yul\":15222:15227   */\n      dup2\n        /* \"#utility.yul\":15215:15227   */\n      swap1\n      pop\n        /* \"#utility.yul\":15158:15233   */\n      swap2\n      swap1\n      pop\n      jump\t// out\n        /* \"#utility.yul\":15239:15508   */\n    tag_137:\n        /* \"#utility.yul\":15349:15388   */\n      tag_282\n        /* \"#utility.yul\":15380:15387   */\n      dup4\n        /* \"#utility.yul\":15349:15388   */\n      tag_135\n      jump\t// in\n    tag_282:\n        /* \"#utility.yul\":15410:15501   */\n      tag_283\n        /* \"#utility.yul\":15459:15500   */\n      tag_284\n        /* \"#utility.yul\":15483:15499   */\n      dup3\n        /* \"#utility.yul\":15459:15500   */\n      tag_136\n      jump\t// in\n    tag_284:\n        /* \"#utility.yul\":15451:15457   */\n      dup5\n        /* \"#utility.yul\":15444:15448   */\n      dup5\n        /* \"#utility.yul\":15438:15449   */\n      sload\n        /* \"#utility.yul\":15410:15501   */\n      tag_133\n      jump\t// in\n    tag_283:\n        /* \"#utility.yul\":15404:15408   */\n      dup3\n        /* \"#utility.yul\":15397:15502   */\n      sstore\n        /* \"#utility.yul\":15315:15508   */\n      pop\n        /* \"#utility.yul\":15239:15508   */\n      pop\n      pop\n      pop\n      jump\t// out\n        /* \"#utility.yul\":15514:15587   */\n    tag_138:\n        /* \"#utility.yul\":15559:15562   */\n      0x00\n        /* \"#utility.yul\":15580:15581   */\n      0x00\n        /* \"#utility.yul\":15573:15581   */\n      swap1\n      pop\n        /* \"#utility.yul\":15514:15587   */\n      swap1\n      jump\t// out\n        /* \"#utility.yul\":15593:15782   */\n    tag_139:\n        /* \"#utility.yul\":15670:15702   */\n      tag_287\n      tag_138\n      jump\t// in\n    tag_287:\n        /* \"#utility.yul\":15711:15776   */\n      tag_288\n        /* \"#utility.yul\":15769:15775   */\n      dup2\n        /* \"#utility.yul\":15761:15767   */\n      dup5\n        /* \"#utility.yul\":15755:15759   */\n      dup5\n        /* \"#utility.yul\":15711:15776   */\n      tag_137\n      jump\t// in\n    tag_288:\n        /* \"#utility.yul\":15646:15782   */\n      pop\n        /* \"#utility.yul\":15593:15782   */\n      pop\n      pop\n      jump\t// out\n        /* \"#utility.yul\":15788:16002   */\n    tag_140:\n        /* \"#utility.yul\":15873:15874   */\n      0x00\n        /* \"#utility.yul\":15858:15996   */\n    tag_290:\n        /* \"#utility.yul\":15883:15892   */\n      dup3\n        /* \"#utility.yul\":15880:15881   */\n      dup2\n        /* \"#utility.yul\":15877:15893   */\n      lt\n        /* \"#utility.yul\":15858:15996   */\n      iszero\n      tag_292\n      jumpi\n        /* \"#utility.yul\":15935:15986   */\n      tag_293\n        /* \"#utility.yul\":15984:15985   */\n      0x00\n        /* \"#utility.yul\":15980:15981   */\n      dup3\n        /* \"#utility.yul\":15969:15978   */\n      dup5\n        /* \"#utility.yul\":15965:15982   */\n      add\n        /* \"#utility.yul\":15935:15986   */\n      tag_139\n      jump\t// in\n    tag_293:\n        /* \"#utility.yul\":15908:15909   */\n      0x01\n        /* \"#utility.yul\":15905:15906   */\n      dup2\n        /* \"#utility.yul\":15901:15910   */\n      add\n        /* \"#utility.yul\":15896:15910   */\n      swap1\n      pop\n        /* \"#utility.yul\":15858:15996   */\n      jump(tag_290)\n    tag_292:\n        /* \"#utility.yul\":15862:15876   */\n      pop\n        /* \"#utility.yul\":15788:16002   */\n      pop\n      pop\n      jump\t// out\n        /* \"#utility.yul\":16008:16754   */\n    tag_141:\n        /* \"#utility.yul\":16109:16111   */\n      0x1f\n        /* \"#utility.yul\":16104:16107   */\n      dup3\n        /* \"#utility.yul\":16101:16112   */\n      gt\n        /* \"#utility.yul\":16098:16747   */\n      iszero\n      tag_295\n      jumpi\n        /* \"#utility.yul\":16138:16148   */\n      dup3\n        /* \"#utility.yul\":16133:16136   */\n      dup3\n        /* \"#utility.yul\":16130:16149   */\n      gt\n        /* \"#utility.yul\":16127:16737   */\n      iszero\n      tag_296\n      jumpi\n        /* \"#utility.yul\":16184:16222   */\n      tag_297\n        /* \"#utility.yul\":16216:16221   */\n      dup2\n        /* \"#utility.yul\":16184:16222   */\n      tag_130\n      jump\t// in\n    tag_297:\n        /* \"#utility.yul\":16259:16281   */\n      tag_298\n        /* \"#utility.yul\":16277:16280   */\n      dup4\n        /* \"#utility.yul\":16259:16281   */\n      tag_131\n      jump\t// in\n    tag_298:\n        /* \"#utility.yul\":16318:16347   */\n      tag_299\n        /* \"#utility.yul\":16336:16346   */\n      dup6\n        /* \"#utility.yul\":16318:16347   */\n      tag_131\n      jump\t// in\n    tag_299:\n        /* \"#utility.yul\":16508:16510   */\n      0x20\n        /* \"#utility.yul\":16496:16506   */\n      dup7\n        /* \"#utility.yul\":16493:16511   */\n      lt\n        /* \"#utility.yul\":16490:16569   */\n      iszero\n      tag_300\n      jumpi\n        /* \"#utility.yul\":16550:16551   */\n      0x00\n        /* \"#utility.yul\":16534:16551   */\n      swap1\n      pop\n        /* \"#utility.yul\":16490:16569   */\n    tag_300:\n        /* \"#utility.yul\":16619:16631   */\n      dup1\n        /* \"#utility.yul\":16609:16617   */\n      dup4\n        /* \"#utility.yul\":16605:16632   */\n      add\n        /* \"#utility.yul\":16649:16723   */\n      tag_301\n        /* \"#utility.yul\":16709:16721   */\n      dup3\n        /* \"#utility.yul\":16695:16707   */\n      dup5\n        /* \"#utility.yul\":16691:16722   */\n      sub\n        /* \"#utility.yul\":16678:16689   */\n      dup3\n        /* \"#utility.yul\":16649:16723   */\n      tag_140\n      jump\t// in\n    tag_301:\n        /* \"#utility.yul\":16150:16737   */\n      pop\n      pop\n      pop\n      pop\n        /* \"#utility.yul\":16127:16737   */\n    tag_296:\n        /* \"#utility.yul\":16098:16747   */\n    tag_295:\n        /* \"#utility.yul\":16008:16754   */\n      pop\n      pop\n      pop\n      jump\t// out\n        /* \"#utility.yul\":16760:16877   */\n    tag_142:\n        /* \"#utility.yul\":16814:16822   */\n      0x00\n        /* \"#utility.yul\":16864:16869   */\n      dup3\n        /* \"#utility.yul\":16858:16862   */\n      dup3\n        /* \"#utility.yul\":16854:16870   */\n      shr\n        /* \"#utility.yul\":16833:16870   */\n      swap1\n      pop\n        /* \"#utility.yul\":16760:16877   */\n      swap3\n      swap2\n      pop\n      pop\n      jump\t// out\n        /* \"#utility.yul\":16883:17052   */\n    tag_143:\n        /* \"#utility.yul\":16927:16933   */\n      0x00\n        /* \"#utility.yul\":16960:17011   */\n      tag_304\n        /* \"#utility.yul\":17008:17009   */\n      0x00\n        /* \"#utility.yul\":17004:17010   */\n      not\n        /* \"#utility.yul\":16996:17001   */\n      dup5\n        /* \"#utility.yul\":16993:16994   */\n      0x08\n        /* \"#utility.yul\":16989:17002   */\n      mul\n        /* \"#utility.yul\":16960:17011   */\n      tag_142\n      jump\t// in\n    tag_304:\n        /* \"#utility.yul\":16956:17012   */\n      not\n        /* \"#utility.yul\":17041:17045   */\n      dup1\n        /* \"#utility.yul\":17035:17039   */\n      dup4\n        /* \"#utility.yul\":17031:17046   */\n      and\n        /* \"#utility.yul\":17021:17046   */\n      swap2\n      pop\n        /* \"#utility.yul\":16934:17052   */\n      pop\n        /* \"#utility.yul\":16883:17052   */\n      swap3\n      swap2\n      pop\n      pop\n      jump\t// out\n        /* \"#utility.yul\":17057:17352   */\n    tag_144:\n        /* \"#utility.yul\":17133:17137   */\n      0x00\n        /* \"#utility.yul\":17279:17308   */\n      tag_306\n        /* \"#utility.yul\":17304:17307   */\n      dup4\n        /* \"#utility.yul\":17298:17302   */\n      dup4\n        /* \"#utility.yul\":17279:17308   */\n      tag_143\n      jump\t// in\n    tag_306:\n        /* \"#utility.yul\":17271:17308   */\n      swap2\n      pop\n        /* \"#utility.yul\":17341:17344   */\n      dup3\n        /* \"#utility.yul\":17338:17339   */\n      0x02\n        /* \"#utility.yul\":17334:17345   */\n      mul\n        /* \"#utility.yul\":17328:17332   */\n      dup3\n        /* \"#utility.yul\":17325:17346   */\n      or\n        /* \"#utility.yul\":17317:17346   */\n      swap1\n      pop\n        /* \"#utility.yul\":17057:17352   */\n      swap3\n      swap2\n      pop\n      pop\n      jump\t// out\n        /* \"#utility.yul\":17357:18752   */\n    tag_87:\n        /* \"#utility.yul\":17474:17511   */\n      tag_308\n        /* \"#utility.yul\":17507:17510   */\n      dup3\n        /* \"#utility.yul\":17474:17511   */\n      tag_97\n      jump\t// in\n    tag_308:\n        /* \"#utility.yul\":17576:17594   */\n      0xffffffffffffffff\n        /* \"#utility.yul\":17568:17574   */\n      dup2\n        /* \"#utility.yul\":17565:17595   */\n      gt\n        /* \"#utility.yul\":17562:17618   */\n      iszero\n      tag_309\n      jumpi\n        /* \"#utility.yul\":17598:17616   */\n      tag_310\n      tag_107\n      jump\t// in\n    tag_310:\n        /* \"#utility.yul\":17562:17618   */\n    tag_309:\n        /* \"#utility.yul\":17642:17680   */\n      tag_311\n        /* \"#utility.yul\":17674:17678   */\n      dup3\n        /* \"#utility.yul\":17668:17679   */\n      sload\n        /* \"#utility.yul\":17642:17680   */\n      tag_45\n      jump\t// in\n    tag_311:\n        /* \"#utility.yul\":17727:17794   */\n      tag_312\n        /* \"#utility.yul\":17787:17793   */\n      dup3\n        /* \"#utility.yul\":17779:17785   */\n      dup3\n        /* \"#utility.yul\":17773:17777   */\n      dup6\n        /* \"#utility.yul\":17727:17794   */\n      tag_141\n      jump\t// in\n    tag_312:\n        /* \"#utility.yul\":17821:17822   */\n      0x00\n        /* \"#utility.yul\":17845:17849   */\n      0x20\n        /* \"#utility.yul\":17832:17849   */\n      swap1\n      pop\n        /* \"#utility.yul\":17877:17879   */\n      0x1f\n        /* \"#utility.yul\":17869:17875   */\n      dup4\n        /* \"#utility.yul\":17866:17880   */\n      gt\n        /* \"#utility.yul\":17894:17895   */\n      0x01\n        /* \"#utility.yul\":17889:18507   */\n      dup2\n      eq\n      tag_314\n      jumpi\n        /* \"#utility.yul\":18551:18552   */\n      0x00\n        /* \"#utility.yul\":18568:18574   */\n      dup5\n        /* \"#utility.yul\":18565:18642   */\n      iszero\n      tag_315\n      jumpi\n        /* \"#utility.yul\":18617:18626   */\n      dup3\n        /* \"#utility.yul\":18612:18615   */\n      dup8\n        /* \"#utility.yul\":18608:18627   */\n      add\n        /* \"#utility.yul\":18602:18628   */\n      mload\n        /* \"#utility.yul\":18593:18628   */\n      swap1\n      pop\n        /* \"#utility.yul\":18565:18642   */\n    tag_315:\n        /* \"#utility.yul\":18668:18735   */\n      tag_316\n        /* \"#utility.yul\":18728:18734   */\n      dup6\n        /* \"#utility.yul\":18721:18726   */\n      dup3\n        /* \"#utility.yul\":18668:18735   */\n      tag_144\n      jump\t// in\n    tag_316:\n        /* \"#utility.yul\":18662:18666   */\n      dup7\n        /* \"#utility.yul\":18655:18736   */\n      sstore\n        /* \"#utility.yul\":18524:18746   */\n      pop\n        /* \"#utility.yul\":17859:18746   */\n      jump(tag_313)\n        /* \"#utility.yul\":17889:18507   */\n    tag_314:\n        /* \"#utility.yul\":17941:17945   */\n      0x1f\n        /* \"#utility.yul\":17937:17946   */\n      not\n        /* \"#utility.yul\":17929:17935   */\n      dup5\n        /* \"#utility.yul\":17925:17947   */\n      and\n        /* \"#utility.yul\":17975:18012   */\n      tag_317\n        /* \"#utility.yul\":18007:18011   */\n      dup7\n        /* \"#utility.yul\":17975:18012   */\n      tag_130\n      jump\t// in\n    tag_317:\n        /* \"#utility.yul\":18034:18035   */\n      0x00\n        /* \"#utility.yul\":18048:18256   */\n    tag_318:\n        /* \"#utility.yul\":18062:18069   */\n      dup3\n        /* \"#utility.yul\":18059:18060   */\n      dup2\n        /* \"#utility.yul\":18056:18070   */\n      lt\n        /* \"#utility.yul\":18048:18256   */\n      iszero\n      tag_320\n      jumpi\n        /* \"#utility.yul\":18141:18150   */\n      dup5\n        /* \"#utility.yul\":18136:18139   */\n      dup10\n        /* \"#utility.yul\":18132:18151   */\n      add\n        /* \"#utility.yul\":18126:18152   */\n      mload\n        /* \"#utility.yul\":18118:18124   */\n      dup3\n        /* \"#utility.yul\":18111:18153   */\n      sstore\n        /* \"#utility.yul\":18192:18193   */\n      0x01\n        /* \"#utility.yul\":18184:18190   */\n      dup3\n        /* \"#utility.yul\":18180:18194   */\n      add\n        /* \"#utility.yul\":18170:18194   */\n      swap2\n      pop\n        /* \"#utility.yul\":18239:18241   */\n      0x20\n        /* \"#utility.yul\":18228:18237   */\n      dup6\n        /* \"#utility.yul\":18224:18242   */\n      add\n        /* \"#utility.yul\":18211:18242   */\n      swap5\n      pop\n        /* \"#utility.yul\":18085:18089   */\n      0x20\n        /* \"#utility.yul\":18082:18083   */\n      dup2\n        /* \"#utility.yul\":18078:18090   */\n      add\n        /* \"#utility.yul\":18073:18090   */\n      swap1\n      pop\n        /* \"#utility.yul\":18048:18256   */\n      jump(tag_318)\n    tag_320:\n        /* \"#utility.yul\":18284:18290   */\n      dup7\n        /* \"#utility.yul\":18275:18282   */\n      dup4\n        /* \"#utility.yul\":18272:18291   */\n      lt\n        /* \"#utility.yul\":18269:18448   */\n      iszero\n      tag_321\n      jumpi\n        /* \"#utility.yul\":18342:18351   */\n      dup5\n        /* \"#utility.yul\":18337:18340   */\n      dup10\n        /* \"#utility.yul\":18333:18352   */\n      add\n        /* \"#utility.yul\":18327:18353   */\n      mload\n        /* \"#utility.yul\":18385:18433   */\n      tag_322\n        /* \"#utility.yul\":18427:18431   */\n      0x1f\n        /* \"#utility.yul\":18419:18425   */\n      dup10\n        /* \"#utility.yul\":18415:18432   */\n      and\n        /* \"#utility.yul\":18404:18413   */\n      dup3\n        /* \"#utility.yul\":18385:18433   */\n      tag_143\n      jump\t// in\n    tag_322:\n        /* \"#utility.yul\":18377:18383   */\n      dup4\n        /* \"#utility.yul\":18370:18434   */\n      sstore\n        /* \"#utility.yul\":18292:18448   */\n      pop\n        /* \"#utility.yul\":18269:18448   */\n    tag_321:\n        /* \"#utility.yul\":18494:18495   */\n      0x01\n        /* \"#utility.yul\":18490:18491   */\n      0x02\n        /* \"#utility.yul\":18482:18488   */\n      dup9\n        /* \"#utility.yul\":18478:18492   */\n      mul\n        /* \"#utility.yul\":18474:18496   */\n      add\n        /* \"#utility.yul\":18468:18472   */\n      dup9\n        /* \"#utility.yul\":18461:18497   */\n      sstore\n        /* \"#utility.yul\":17896:18507   */\n      pop\n      pop\n      pop\n        /* \"#utility.yul\":17859:18746   */\n    tag_313:\n      pop\n        /* \"#utility.yul\":17449:18752   */\n      pop\n      pop\n      pop\n        /* \"#utility.yul\":17357:18752   */\n      pop\n      pop\n      jump\t// out\n\n    auxdata: 0xa2646970667358221220fed6a7986a49de3b2866bc862ec2d5aee5a555b28d1951b68a68eed1ad44eb4464736f6c63430008220033\n}\n",
				"bytecode": {
					"linkReferences": {},
					"object": "608060405267016345785d8a0000600155348015601a575f5ffd5b50335f5f6101000a81548173ffffffffffffffffffffffffffffffffffffffff021916908373ffffffffffffffffffffffffffffffffffffffff160217905550611064806100675f395ff3fe60806040526004361061006f575f3560e01c8063ae5e6cf41161004d578063ae5e6cf4146100f3578063af426f111461011b578063d8012a2a14610145578063f0f160f81461016f5761006f565b80631dab301e146100735780633ccfd60b146100b35780638da5cb5b146100c9575b5f5ffd5b34801561007e575f5ffd5b5061009960048036038101906100949190610760565b61018b565b6040516100aa959493929190610863565b60405180910390f35b3480156100be575f5ffd5b506100c761027d565b005b3480156100d4575f5ffd5b506100dd6103d6565b6040516100ea91906108bb565b60405180910390f35b3480156100fe575f5ffd5b5061011960048036038101906101149190610760565b6103fa565b005b348015610126575f5ffd5b5061012f6105cb565b60405161013c91906108d4565b60405180910390f35b348015610150575f5ffd5b506101596105d1565b60405161016691906108d4565b60405180910390f35b61018960048036038101906101849190610a19565b6105dd565b005b6002818154811061019a575f80fd5b905f5260205f2090600502015f91509050805f015f9054906101000a900473ffffffffffffffffffffffffffffffffffffffff16908060010180546101de90610aa0565b80601f016020809104026020016040519081016040528092919081815260200182805461020a90610aa0565b80156102555780601f1061022c57610100808354040283529160200191610255565b820191905f5260205f20905b81548152906001019060200180831161023857829003601f168201915b505050505090806002015490806003015490806004015f9054906101000a900460ff16905085565b5f5f9054906101000a900473ffffffffffffffffffffffffffffffffffffffff1673ffffffffffffffffffffffffffffffffffffffff163373ffffffffffffffffffffffffffffffffffffffff161461030b576040517f08c379a000000000000000000000000000000000000000000000000000000000815260040161030290610b1a565b60405180910390fd5b5f5f5f9054906101000a900473ffffffffffffffffffffffffffffffffffffffff1673ffffffffffffffffffffffffffffffffffffffff164760405161035090610b65565b5f6040518083038185875af1925050503d805f811461038a576040519150601f19603f3d011682016040523d82523d5f602084013e61038f565b606091505b50509050806103d3576040517f08c379a00000000000000000000000000000000000000000000000000000000081526004016103ca90610bc3565b60405180910390fd5b50565b5f5f9054906101000a900473ffffffffffffffffffffffffffffffffffffffff1681565b5f6002828154811061040f5761040e610be1565b5b905f5260205f2090600502019050805f015f9054906101000a900473ffffffffffffffffffffffffffffffffffffffff1673ffffffffffffffffffffffffffffffffffffffff163373ffffffffffffffffffffffffffffffffffffffff16146104ad576040517f08c379a00000000000000000000000000000000000000000000000000000000081526004016104a490610c58565b60405180910390fd5b806004015f9054906101000a900460ff16156104fe576040517f08c379a00000000000000000000000000000000000000000000000000000000081526004016104f590610cc0565b60405180910390fd5b6001816004015f6101000a81548160ff0219169083151502179055505f3373ffffffffffffffffffffffffffffffffffffffff16826003015460405161054390610b65565b5f6040518083038185875af1925050503d805f811461057d576040519150601f19603f3d011682016040523d82523d5f602084013e610582565b606091505b50509050806105c6576040517f08c379a00000000000000000000000000000000000000000000000000000000081526004016105bd90610d28565b60405180910390fd5b505050565b60015481565b5f600280549050905090565b600154341015610622576040517f08c379a000000000000000000000000000000000000000000000000000000000815260040161061990610d90565b60405180910390fd5b60026040518060a001604052803373ffffffffffffffffffffffffffffffffffffffff1681526020018481526020018381526020013481526020015f1515815250908060018154018082558091505060019003905f5260205f2090600502015f909190919091505f820151815f015f6101000a81548173ffffffffffffffffffffffffffffffffffffffff021916908373ffffffffffffffffffffffffffffffffffffffff16021790555060208201518160010190816106e29190610f5f565b5060408201518160020155606082015181600301556080820151816004015f6101000a81548160ff02191690831515021790555050505050565b5f604051905090565b5f5ffd5b5f5ffd5b5f819050919050565b61073f8161072d565b8114610749575f5ffd5b50565b5f8135905061075a81610736565b92915050565b5f6020828403121561077557610774610725565b5b5f6107828482850161074c565b91505092915050565b5f73ffffffffffffffffffffffffffffffffffffffff82169050919050565b5f6107b48261078b565b9050919050565b6107c4816107aa565b82525050565b5f81519050919050565b5f82825260208201905092915050565b8281835e5f83830152505050565b5f601f19601f8301169050919050565b5f61080c826107ca565b61081681856107d4565b93506108268185602086016107e4565b61082f816107f2565b840191505092915050565b6108438161072d565b82525050565b5f8115159050919050565b61085d81610849565b82525050565b5f60a0820190506108765f8301886107bb565b81810360208301526108888187610802565b9050610897604083018661083a565b6108a4606083018561083a565b6108b16080830184610854565b9695505050505050565b5f6020820190506108ce5f8301846107bb565b92915050565b5f6020820190506108e75f83018461083a565b92915050565b5f5ffd5b5f5ffd5b7f4e487b71000000000000000000000000000000000000000000000000000000005f52604160045260245ffd5b61092b826107f2565b810181811067ffffffffffffffff8211171561094a576109496108f5565b5b80604052505050565b5f61095c61071c565b90506109688282610922565b919050565b5f67ffffffffffffffff821115610987576109866108f5565b5b610990826107f2565b9050602081019050919050565b828183375f83830152505050565b5f6109bd6109b88461096d565b610953565b9050828152602081018484840111156109d9576109d86108f1565b5b6109e484828561099d565b509392505050565b5f82601f830112610a00576109ff6108ed565b5b8135610a108482602086016109ab565b91505092915050565b5f5f60408385031215610a2f57610a2e610725565b5b5f83013567ffffffffffffffff811115610a4c57610a4b610729565b5b610a58858286016109ec565b9250506020610a698582860161074c565b9150509250929050565b7f4e487b71000000000000000000000000000000000000000000000000000000005f52602260045260245ffd5b5f6002820490506001821680610ab757607f821691505b602082108103610aca57610ac9610a73565b5b50919050565b7f4e6f74206f776e657200000000000000000000000000000000000000000000005f82015250565b5f610b046009836107d4565b9150610b0f82610ad0565b602082019050919050565b5f6020820190508181035f830152610b3181610af8565b9050919050565b5f81905092915050565b50565b5f610b505f83610b38565b9150610b5b82610b42565b5f82019050919050565b5f610b6f82610b45565b9150819050919050565b7f5472616e73666572206661696c6564206661696c6564000000000000000000005f82015250565b5f610bad6016836107d4565b9150610bb882610b79565b602082019050919050565b5f6020820190508181035f830152610bda81610ba1565b9050919050565b7f4e487b71000000000000000000000000000000000000000000000000000000005f52603260045260245ffd5b7f4e6f7420796f7572207265736572766174696f6e0000000000000000000000005f82015250565b5f610c426014836107d4565b9150610c4d82610c0e565b602082019050919050565b5f6020820190508181035f830152610c6f81610c36565b9050919050565b7f416c72656164792063616e63656c6c65640000000000000000000000000000005f82015250565b5f610caa6011836107d4565b9150610cb582610c76565b602082019050919050565b5f6020820190508181035f830152610cd781610c9e565b9050919050565b7f5472616e73666572206661696c656400000000000000000000000000000000005f82015250565b5f610d12600f836107d4565b9150610d1d82610cde565b602082019050919050565b5f6020820190508181035f830152610d3f81610d06565b9050919050565b7f4e6f7420656e6f756768204554480000000000000000000000000000000000005f82015250565b5f610d7a600e836107d4565b9150610d8582610d46565b602082019050919050565b5f6020820190508181035f830152610da781610d6e565b9050919050565b5f819050815f5260205f209050919050565b5f6020601f8301049050919050565b5f82821b905092915050565b5f60088302610e0a7fffffffffffffffffffffffffffffffffffffffffffffffffffffffffffffffff82610dcf565b610e148683610dcf565b95508019841693508086168417925050509392505050565b5f819050919050565b5f610e4f610e4a610e458461072d565b610e2c565b61072d565b9050919050565b5f819050919050565b610e6883610e35565b610e7c610e7482610e56565b848454610ddb565b825550505050565b5f5f905090565b610e93610e84565b610e9e818484610e5f565b505050565b5f5b82811015610ec457610eb95f828401610e8b565b600181019050610ea5565b505050565b601f821115610f175782821115610f1657610ee381610dae565b610eec83610dc0565b610ef585610dc0565b6020861015610f02575f90505b808301610f1182840382610ea3565b505050505b5b505050565b5f82821c905092915050565b5f610f375f1984600802610f1c565b1980831691505092915050565b5f610f4f8383610f28565b9150826002028217905092915050565b610f68826107ca565b67ffffffffffffffff811115610f8157610f806108f5565b5b610f8b8254610aa0565b610f96828285610ec9565b5f60209050601f831160018114610fc7575f8415610fb5578287015190505b610fbf8582610f44565b865550611026565b601f198416610fd586610dae565b5f5b82811015610ffc57848901518255600182019150602085019450602081019050610fd7565b868310156110195784890151611015601f891682610f28565b8355505b6001600288020188555050505b50505050505056fea2646970667358221220fed6a7986a49de3b2866bc862ec2d5aee5a555b28d1951b68a68eed1ad44eb4464736f6c63430008220033",
					"opcodes": "PUSH1 0x80 PUSH1 0x40 MSTORE PUSH8 0x16345785D8A0000 PUSH1 0x1 SSTORE CALLVALUE DUP1 ISZERO PUSH1 0x1A JUMPI PUSH0 PUSH0 REVERT JUMPDEST POP CALLER PUSH0 PUSH0 PUSH2 0x100 EXP DUP2 SLOAD DUP2 PUSH20 0xFFFFFFFFFFFFFFFFFFFFFFFFFFFFFFFFFFFFFFFF MUL NOT AND SWAP1 DUP4 PUSH20 0xFFFFFFFFFFFFFFFFFFFFFFFFFFFFFFFFFFFFFFFF AND MUL OR SWAP1 SSTORE POP PUSH2 0x1064 DUP1 PUSH2 0x67 PUSH0 CODECOPY PUSH0 RETURN INVALID PUSH1 0x80 PUSH1 0x40 MSTORE PUSH1 0x4 CALLDATASIZE LT PUSH2 0x6F JUMPI PUSH0 CALLDATALOAD PUSH1 0xE0 SHR DUP1 PUSH4 0xAE5E6CF4 GT PUSH2 0x4D JUMPI DUP1 PUSH4 0xAE5E6CF4 EQ PUSH2 0xF3 JUMPI DUP1 PUSH4 0xAF426F11 EQ PUSH2 0x11B JUMPI DUP1 PUSH4 0xD8012A2A EQ PUSH2 0x145 JUMPI DUP1 PUSH4 0xF0F160F8 EQ PUSH2 0x16F JUMPI PUSH2 0x6F JUMP JUMPDEST DUP1 PUSH4 0x1DAB301E EQ PUSH2 0x73 JUMPI DUP1 PUSH4 0x3CCFD60B EQ PUSH2 0xB3 JUMPI DUP1 PUSH4 0x8DA5CB5B EQ PUSH2 0xC9 JUMPI JUMPDEST PUSH0 PUSH0 REVERT JUMPDEST CALLVALUE DUP1 ISZERO PUSH2 0x7E JUMPI PUSH0 PUSH0 REVERT JUMPDEST POP PUSH2 0x99 PUSH1 0x4 DUP1 CALLDATASIZE SUB DUP2 ADD SWAP1 PUSH2 0x94 SWAP2 SWAP1 PUSH2 0x760 JUMP JUMPDEST PUSH2 0x18B JUMP JUMPDEST PUSH1 0x40 MLOAD PUSH2 0xAA SWAP6 SWAP5 SWAP4 SWAP3 SWAP2 SWAP1 PUSH2 0x863 JUMP JUMPDEST PUSH1 0x40 MLOAD DUP1 SWAP2 SUB SWAP1 RETURN JUMPDEST CALLVALUE DUP1 ISZERO PUSH2 0xBE JUMPI PUSH0 PUSH0 REVERT JUMPDEST POP PUSH2 0xC7 PUSH2 0x27D JUMP JUMPDEST STOP JUMPDEST CALLVALUE DUP1 ISZERO PUSH2 0xD4 JUMPI PUSH0 PUSH0 REVERT JUMPDEST POP PUSH2 0xDD PUSH2 0x3D6 JUMP JUMPDEST PUSH1 0x40 MLOAD PUSH2 0xEA SWAP2 SWAP1 PUSH2 0x8BB JUMP JUMPDEST PUSH1 0x40 MLOAD DUP1 SWAP2 SUB SWAP1 RETURN JUMPDEST CALLVALUE DUP1 ISZERO PUSH2 0xFE JUMPI PUSH0 PUSH0 REVERT JUMPDEST POP PUSH2 0x119 PUSH1 0x4 DUP1 CALLDATASIZE SUB DUP2 ADD SWAP1 PUSH2 0x114 SWAP2 SWAP1 PUSH2 0x760 JUMP JUMPDEST PUSH2 0x3FA JUMP JUMPDEST STOP JUMPDEST CALLVALUE DUP1 ISZERO PUSH2 0x126 JUMPI PUSH0 PUSH0 REVERT JUMPDEST POP PUSH2 0x12F PUSH2 0x5CB JUMP JUMPDEST PUSH1 0x40 MLOAD PUSH2 0x13C SWAP2 SWAP1 PUSH2 0x8D4 JUMP JUMPDEST PUSH1 0x40 MLOAD DUP1 SWAP2 SUB SWAP1 RETURN JUMPDEST CALLVALUE DUP1 ISZERO PUSH2 0x150 JUMPI PUSH0 PUSH0 REVERT JUMPDEST POP PUSH2 0x159 PUSH2 0x5D1 JUMP JUMPDEST PUSH1 0x40 MLOAD PUSH2 0x166 SWAP2 SWAP1 PUSH2 0x8D4 JUMP JUMPDEST PUSH1 0x40 MLOAD DUP1 SWAP2 SUB SWAP1 RETURN JUMPDEST PUSH2 0x189 PUSH1 0x4 DUP1 CALLDATASIZE SUB DUP2 ADD SWAP1 PUSH2 0x184 SWAP2 SWAP1 PUSH2 0xA19 JUMP JUMPDEST PUSH2 0x5DD JUMP JUMPDEST STOP JUMPDEST PUSH1 0x2 DUP2 DUP2 SLOAD DUP2 LT PUSH2 0x19A JUMPI PUSH0 DUP1 REVERT JUMPDEST SWAP1 PUSH0 MSTORE PUSH1 0x20 PUSH0 KECCAK256 SWAP1 PUSH1 0x5 MUL ADD PUSH0 SWAP2 POP SWAP1 POP DUP1 PUSH0 ADD PUSH0 SWAP1 SLOAD SWAP1 PUSH2 0x100 EXP SWAP1 DIV PUSH20 0xFFFFFFFFFFFFFFFFFFFFFFFFFFFFFFFFFFFFFFFF AND SWAP1 DUP1 PUSH1 0x1 ADD DUP1 SLOAD PUSH2 0x1DE SWAP1 PUSH2 0xAA0 JUMP JUMPDEST DUP1 PUSH1 0x1F ADD PUSH1 0x20 DUP1 SWAP2 DIV MUL PUSH1 0x20 ADD PUSH1 0x40 MLOAD SWAP1 DUP2 ADD PUSH1 0x40 MSTORE DUP1 SWAP3 SWAP2 SWAP1 DUP2 DUP2 MSTORE PUSH1 0x20 ADD DUP3 DUP1 SLOAD PUSH2 0x20A SWAP1 PUSH2 0xAA0 JUMP JUMPDEST DUP1 ISZERO PUSH2 0x255 JUMPI DUP1 PUSH1 0x1F LT PUSH2 0x22C JUMPI PUSH2 0x100 DUP1 DUP4 SLOAD DIV MUL DUP4 MSTORE SWAP2 PUSH1 0x20 ADD SWAP2 PUSH2 0x255 JUMP JUMPDEST DUP3 ADD SWAP2 SWAP1 PUSH0 MSTORE PUSH1 0x20 PUSH0 KECCAK256 SWAP1 JUMPDEST DUP2 SLOAD DUP2 MSTORE SWAP1 PUSH1 0x1 ADD SWAP1 PUSH1 0x20 ADD DUP1 DUP4 GT PUSH2 0x238 JUMPI DUP3 SWAP1 SUB PUSH1 0x1F AND DUP3 ADD SWAP2 JUMPDEST POP POP POP POP POP SWAP1 DUP1 PUSH1 0x2 ADD SLOAD SWAP1 DUP1 PUSH1 0x3 ADD SLOAD SWAP1 DUP1 PUSH1 0x4 ADD PUSH0 SWAP1 SLOAD SWAP1 PUSH2 0x100 EXP SWAP1 DIV PUSH1 0xFF AND SWAP1 POP DUP6 JUMP JUMPDEST PUSH0 PUSH0 SWAP1 SLOAD SWAP1 PUSH2 0x100 EXP SWAP1 DIV PUSH20 0xFFFFFFFFFFFFFFFFFFFFFFFFFFFFFFFFFFFFFFFF AND PUSH20 0xFFFFFFFFFFFFFFFFFFFFFFFFFFFFFFFFFFFFFFFF AND CALLER PUSH20 0xFFFFFFFFFFFFFFFFFFFFFFFFFFFFFFFFFFFFFFFF AND EQ PUSH2 0x30B JUMPI PUSH1 0x40 MLOAD PUSH32 0x8C379A000000000000000000000000000000000000000000000000000000000 DUP2 MSTORE PUSH1 0x4 ADD PUSH2 0x302 SWAP1 PUSH2 0xB1A JUMP JUMPDEST PUSH1 0x40 MLOAD DUP1 SWAP2 SUB SWAP1 REVERT JUMPDEST PUSH0 PUSH0 PUSH0 SWAP1 SLOAD SWAP1 PUSH2 0x100 EXP SWAP1 DIV PUSH20 0xFFFFFFFFFFFFFFFFFFFFFFFFFFFFFFFFFFFFFFFF AND PUSH20 0xFFFFFFFFFFFFFFFFFFFFFFFFFFFFFFFFFFFFFFFF AND SELFBALANCE PUSH1 0x40 MLOAD PUSH2 0x350 SWAP1 PUSH2 0xB65 JUMP JUMPDEST PUSH0 PUSH1 0x40 MLOAD DUP1 DUP4 SUB DUP2 DUP6 DUP8 GAS CALL SWAP3 POP POP POP RETURNDATASIZE DUP1 PUSH0 DUP2 EQ PUSH2 0x38A JUMPI PUSH1 0x40 MLOAD SWAP2 POP PUSH1 0x1F NOT PUSH1 0x3F RETURNDATASIZE ADD AND DUP3 ADD PUSH1 0x40 MSTORE RETURNDATASIZE DUP3 MSTORE RETURNDATASIZE PUSH0 PUSH1 0x20 DUP5 ADD RETURNDATACOPY PUSH2 0x38F JUMP JUMPDEST PUSH1 0x60 SWAP2 POP JUMPDEST POP POP SWAP1 POP DUP1 PUSH2 0x3D3 JUMPI PUSH1 0x40 MLOAD PUSH32 0x8C379A000000000000000000000000000000000000000000000000000000000 DUP2 MSTORE PUSH1 0x4 ADD PUSH2 0x3CA SWAP1 PUSH2 0xBC3 JUMP JUMPDEST PUSH1 0x40 MLOAD DUP1 SWAP2 SUB SWAP1 REVERT JUMPDEST POP JUMP JUMPDEST PUSH0 PUSH0 SWAP1 SLOAD SWAP1 PUSH2 0x100 EXP SWAP1 DIV PUSH20 0xFFFFFFFFFFFFFFFFFFFFFFFFFFFFFFFFFFFFFFFF AND DUP2 JUMP JUMPDEST PUSH0 PUSH1 0x2 DUP3 DUP2 SLOAD DUP2 LT PUSH2 0x40F JUMPI PUSH2 0x40E PUSH2 0xBE1 JUMP JUMPDEST JUMPDEST SWAP1 PUSH0 MSTORE PUSH1 0x20 PUSH0 KECCAK256 SWAP1 PUSH1 0x5 MUL ADD SWAP1 POP DUP1 PUSH0 ADD PUSH0 SWAP1 SLOAD SWAP1 PUSH2 0x100 EXP SWAP1 DIV PUSH20 0xFFFFFFFFFFFFFFFFFFFFFFFFFFFFFFFFFFFFFFFF AND PUSH20 0xFFFFFFFFFFFFFFFFFFFFFFFFFFFFFFFFFFFFFFFF AND CALLER PUSH20 0xFFFFFFFFFFFFFFFFFFFFFFFFFFFFFFFFFFFFFFFF AND EQ PUSH2 0x4AD JUMPI PUSH1 0x40 MLOAD PUSH32 0x8C379A000000000000000000000000000000000000000000000000000000000 DUP2 MSTORE PUSH1 0x4 ADD PUSH2 0x4A4 SWAP1 PUSH2 0xC58 JUMP JUMPDEST PUSH1 0x40 MLOAD DUP1 SWAP2 SUB SWAP1 REVERT JUMPDEST DUP1 PUSH1 0x4 ADD PUSH0 SWAP1 SLOAD SWAP1 PUSH2 0x100 EXP SWAP1 DIV PUSH1 0xFF AND ISZERO PUSH2 0x4FE JUMPI PUSH1 0x40 MLOAD PUSH32 0x8C379A000000000000000000000000000000000000000000000000000000000 DUP2 MSTORE PUSH1 0x4 ADD PUSH2 0x4F5 SWAP1 PUSH2 0xCC0 JUMP JUMPDEST PUSH1 0x40 MLOAD DUP1 SWAP2 SUB SWAP1 REVERT JUMPDEST PUSH1 0x1 DUP2 PUSH1 0x4 ADD PUSH0 PUSH2 0x100 EXP DUP2 SLOAD DUP2 PUSH1 0xFF MUL NOT AND SWAP1 DUP4 ISZERO ISZERO MUL OR SWAP1 SSTORE POP PUSH0 CALLER PUSH20 0xFFFFFFFFFFFFFFFFFFFFFFFFFFFFFFFFFFFFFFFF AND DUP3 PUSH1 0x3 ADD SLOAD PUSH1 0x40 MLOAD PUSH2 0x543 SWAP1 PUSH2 0xB65 JUMP JUMPDEST PUSH0 PUSH1 0x40 MLOAD DUP1 DUP4 SUB DUP2 DUP6 DUP8 GAS CALL SWAP3 POP POP POP RETURNDATASIZE DUP1 PUSH0 DUP2 EQ PUSH2 0x57D JUMPI PUSH1 0x40 MLOAD SWAP2 POP PUSH1 0x1F NOT PUSH1 0x3F RETURNDATASIZE ADD AND DUP3 ADD PUSH1 0x40 MSTORE RETURNDATASIZE DUP3 MSTORE RETURNDATASIZE PUSH0 PUSH1 0x20 DUP5 ADD RETURNDATACOPY PUSH2 0x582 JUMP JUMPDEST PUSH1 0x60 SWAP2 POP JUMPDEST POP POP SWAP1 POP DUP1 PUSH2 0x5C6 JUMPI PUSH1 0x40 MLOAD PUSH32 0x8C379A000000000000000000000000000000000000000000000000000000000 DUP2 MSTORE PUSH1 0x4 ADD PUSH2 0x5BD SWAP1 PUSH2 0xD28 JUMP JUMPDEST PUSH1 0x40 MLOAD DUP1 SWAP2 SUB SWAP1 REVERT JUMPDEST POP POP POP JUMP JUMPDEST PUSH1 0x1 SLOAD DUP2 JUMP JUMPDEST PUSH0 PUSH1 0x2 DUP1 SLOAD SWAP1 POP SWAP1 POP SWAP1 JUMP JUMPDEST PUSH1 0x1 SLOAD CALLVALUE LT ISZERO PUSH2 0x622 JUMPI PUSH1 0x40 MLOAD PUSH32 0x8C379A000000000000000000000000000000000000000000000000000000000 DUP2 MSTORE PUSH1 0x4 ADD PUSH2 0x619 SWAP1 PUSH2 0xD90 JUMP JUMPDEST PUSH1 0x40 MLOAD DUP1 SWAP2 SUB SWAP1 REVERT JUMPDEST PUSH1 0x2 PUSH1 0x40 MLOAD DUP1 PUSH1 0xA0 ADD PUSH1 0x40 MSTORE DUP1 CALLER PUSH20 0xFFFFFFFFFFFFFFFFFFFFFFFFFFFFFFFFFFFFFFFF AND DUP2 MSTORE PUSH1 0x20 ADD DUP5 DUP2 MSTORE PUSH1 0x20 ADD DUP4 DUP2 MSTORE PUSH1 0x20 ADD CALLVALUE DUP2 MSTORE PUSH1 0x20 ADD PUSH0 ISZERO ISZERO DUP2 MSTORE POP SWAP1 DUP1 PUSH1 0x1 DUP2 SLOAD ADD DUP1 DUP3 SSTORE DUP1 SWAP2 POP POP PUSH1 0x1 SWAP1 SUB SWAP1 PUSH0 MSTORE PUSH1 0x20 PUSH0 KECCAK256 SWAP1 PUSH1 0x5 MUL ADD PUSH0 SWAP1 SWAP2 SWAP1 SWAP2 SWAP1 SWAP2 POP PUSH0 DUP3 ADD MLOAD DUP2 PUSH0 ADD PUSH0 PUSH2 0x100 EXP DUP2 SLOAD DUP2 PUSH20 0xFFFFFFFFFFFFFFFFFFFFFFFFFFFFFFFFFFFFFFFF MUL NOT AND SWAP1 DUP4 PUSH20 0xFFFFFFFFFFFFFFFFFFFFFFFFFFFFFFFFFFFFFFFF AND MUL OR SWAP1 SSTORE POP PUSH1 0x20 DUP3 ADD MLOAD DUP2 PUSH1 0x1 ADD SWAP1 DUP2 PUSH2 0x6E2 SWAP2 SWAP1 PUSH2 0xF5F JUMP JUMPDEST POP PUSH1 0x40 DUP3 ADD MLOAD DUP2 PUSH1 0x2 ADD SSTORE PUSH1 0x60 DUP3 ADD MLOAD DUP2 PUSH1 0x3 ADD SSTORE PUSH1 0x80 DUP3 ADD MLOAD DUP2 PUSH1 0x4 ADD PUSH0 PUSH2 0x100 EXP DUP2 SLOAD DUP2 PUSH1 0xFF MUL NOT AND SWAP1 DUP4 ISZERO ISZERO MUL OR SWAP1 SSTORE POP POP POP POP POP JUMP JUMPDEST PUSH0 PUSH1 0x40 MLOAD SWAP1 POP SWAP1 JUMP JUMPDEST PUSH0 PUSH0 REVERT JUMPDEST PUSH0 PUSH0 REVERT JUMPDEST PUSH0 DUP2 SWAP1 POP SWAP2 SWAP1 POP JUMP JUMPDEST PUSH2 0x73F DUP2 PUSH2 0x72D JUMP JUMPDEST DUP2 EQ PUSH2 0x749 JUMPI PUSH0 PUSH0 REVERT JUMPDEST POP JUMP JUMPDEST PUSH0 DUP2 CALLDATALOAD SWAP1 POP PUSH2 0x75A DUP2 PUSH2 0x736 JUMP JUMPDEST SWAP3 SWAP2 POP POP JUMP JUMPDEST PUSH0 PUSH1 0x20 DUP3 DUP5 SUB SLT ISZERO PUSH2 0x775 JUMPI PUSH2 0x774 PUSH2 0x725 JUMP JUMPDEST JUMPDEST PUSH0 PUSH2 0x782 DUP5 DUP3 DUP6 ADD PUSH2 0x74C JUMP JUMPDEST SWAP2 POP POP SWAP3 SWAP2 POP POP JUMP JUMPDEST PUSH0 PUSH20 0xFFFFFFFFFFFFFFFFFFFFFFFFFFFFFFFFFFFFFFFF DUP3 AND SWAP1 POP SWAP2 SWAP1 POP JUMP JUMPDEST PUSH0 PUSH2 0x7B4 DUP3 PUSH2 0x78B JUMP JUMPDEST SWAP1 POP SWAP2 SWAP1 POP JUMP JUMPDEST PUSH2 0x7C4 DUP2 PUSH2 0x7AA JUMP JUMPDEST DUP3 MSTORE POP POP JUMP JUMPDEST PUSH0 DUP2 MLOAD SWAP1 POP SWAP2 SWAP1 POP JUMP JUMPDEST PUSH0 DUP3 DUP3 MSTORE PUSH1 0x20 DUP3 ADD SWAP1 POP SWAP3 SWAP2 POP POP JUMP JUMPDEST DUP3 DUP2 DUP4 MCOPY PUSH0 DUP4 DUP4 ADD MSTORE POP POP POP JUMP JUMPDEST PUSH0 PUSH1 0x1F NOT PUSH1 0x1F DUP4 ADD AND SWAP1 POP SWAP2 SWAP1 POP JUMP JUMPDEST PUSH0 PUSH2 0x80C DUP3 PUSH2 0x7CA JUMP JUMPDEST PUSH2 0x816 DUP2 DUP6 PUSH2 0x7D4 JUMP JUMPDEST SWAP4 POP PUSH2 0x826 DUP2 DUP6 PUSH1 0x20 DUP7 ADD PUSH2 0x7E4 JUMP JUMPDEST PUSH2 0x82F DUP2 PUSH2 0x7F2 JUMP JUMPDEST DUP5 ADD SWAP2 POP POP SWAP3 SWAP2 POP POP JUMP JUMPDEST PUSH2 0x843 DUP2 PUSH2 0x72D JUMP JUMPDEST DUP3 MSTORE POP POP JUMP JUMPDEST PUSH0 DUP2 ISZERO ISZERO SWAP1 POP SWAP2 SWAP1 POP JUMP JUMPDEST PUSH2 0x85D DUP2 PUSH2 0x849 JUMP JUMPDEST DUP3 MSTORE POP POP JUMP JUMPDEST PUSH0 PUSH1 0xA0 DUP3 ADD SWAP1 POP PUSH2 0x876 PUSH0 DUP4 ADD DUP9 PUSH2 0x7BB JUMP JUMPDEST DUP2 DUP2 SUB PUSH1 0x20 DUP4 ADD MSTORE PUSH2 0x888 DUP2 DUP8 PUSH2 0x802 JUMP JUMPDEST SWAP1 POP PUSH2 0x897 PUSH1 0x40 DUP4 ADD DUP7 PUSH2 0x83A JUMP JUMPDEST PUSH2 0x8A4 PUSH1 0x60 DUP4 ADD DUP6 PUSH2 0x83A JUMP JUMPDEST PUSH2 0x8B1 PUSH1 0x80 DUP4 ADD DUP5 PUSH2 0x854 JUMP JUMPDEST SWAP7 SWAP6 POP POP POP POP POP POP JUMP JUMPDEST PUSH0 PUSH1 0x20 DUP3 ADD SWAP1 POP PUSH2 0x8CE PUSH0 DUP4 ADD DUP5 PUSH2 0x7BB JUMP JUMPDEST SWAP3 SWAP2 POP POP JUMP JUMPDEST PUSH0 PUSH1 0x20 DUP3 ADD SWAP1 POP PUSH2 0x8E7 PUSH0 DUP4 ADD DUP5 PUSH2 0x83A JUMP JUMPDEST SWAP3 SWAP2 POP POP JUMP JUMPDEST PUSH0 PUSH0 REVERT JUMPDEST PUSH0 PUSH0 REVERT JUMPDEST PUSH32 0x4E487B7100000000000000000000000000000000000000000000000000000000 PUSH0 MSTORE PUSH1 0x41 PUSH1 0x4 MSTORE PUSH1 0x24 PUSH0 REVERT JUMPDEST PUSH2 0x92B DUP3 PUSH2 0x7F2 JUMP JUMPDEST DUP2 ADD DUP2 DUP2 LT PUSH8 0xFFFFFFFFFFFFFFFF DUP3 GT OR ISZERO PUSH2 0x94A JUMPI PUSH2 0x949 PUSH2 0x8F5 JUMP JUMPDEST JUMPDEST DUP1 PUSH1 0x40 MSTORE POP POP POP JUMP JUMPDEST PUSH0 PUSH2 0x95C PUSH2 0x71C JUMP JUMPDEST SWAP1 POP PUSH2 0x968 DUP3 DUP3 PUSH2 0x922 JUMP JUMPDEST SWAP2 SWAP1 POP JUMP JUMPDEST PUSH0 PUSH8 0xFFFFFFFFFFFFFFFF DUP3 GT ISZERO PUSH2 0x987 JUMPI PUSH2 0x986 PUSH2 0x8F5 JUMP JUMPDEST JUMPDEST PUSH2 0x990 DUP3 PUSH2 0x7F2 JUMP JUMPDEST SWAP1 POP PUSH1 0x20 DUP2 ADD SWAP1 POP SWAP2 SWAP1 POP JUMP JUMPDEST DUP3 DUP2 DUP4 CALLDATACOPY PUSH0 DUP4 DUP4 ADD MSTORE POP POP POP JUMP JUMPDEST PUSH0 PUSH2 0x9BD PUSH2 0x9B8 DUP5 PUSH2 0x96D JUMP JUMPDEST PUSH2 0x953 JUMP JUMPDEST SWAP1 POP DUP3 DUP2 MSTORE PUSH1 0x20 DUP2 ADD DUP5 DUP5 DUP5 ADD GT ISZERO PUSH2 0x9D9 JUMPI PUSH2 0x9D8 PUSH2 0x8F1 JUMP JUMPDEST JUMPDEST PUSH2 0x9E4 DUP5 DUP3 DUP6 PUSH2 0x99D JUMP JUMPDEST POP SWAP4 SWAP3 POP POP POP JUMP JUMPDEST PUSH0 DUP3 PUSH1 0x1F DUP4 ADD SLT PUSH2 0xA00 JUMPI PUSH2 0x9FF PUSH2 0x8ED JUMP JUMPDEST JUMPDEST DUP2 CALLDATALOAD PUSH2 0xA10 DUP5 DUP3 PUSH1 0x20 DUP7 ADD PUSH2 0x9AB JUMP JUMPDEST SWAP2 POP POP SWAP3 SWAP2 POP POP JUMP JUMPDEST PUSH0 PUSH0 PUSH1 0x40 DUP4 DUP6 SUB SLT ISZERO PUSH2 0xA2F JUMPI PUSH2 0xA2E PUSH2 0x725 JUMP JUMPDEST JUMPDEST PUSH0 DUP4 ADD CALLDATALOAD PUSH8 0xFFFFFFFFFFFFFFFF DUP2 GT ISZERO PUSH2 0xA4C JUMPI PUSH2 0xA4B PUSH2 0x729 JUMP JUMPDEST JUMPDEST PUSH2 0xA58 DUP6 DUP3 DUP7 ADD PUSH2 0x9EC JUMP JUMPDEST SWAP3 POP POP PUSH1 0x20 PUSH2 0xA69 DUP6 DUP3 DUP7 ADD PUSH2 0x74C JUMP JUMPDEST SWAP2 POP POP SWAP3 POP SWAP3 SWAP1 POP JUMP JUMPDEST PUSH32 0x4E487B7100000000000000000000000000000000000000000000000000000000 PUSH0 MSTORE PUSH1 0x22 PUSH1 0x4 MSTORE PUSH1 0x24 PUSH0 REVERT JUMPDEST PUSH0 PUSH1 0x2 DUP3 DIV SWAP1 POP PUSH1 0x1 DUP3 AND DUP1 PUSH2 0xAB7 JUMPI PUSH1 0x7F DUP3 AND SWAP2 POP JUMPDEST PUSH1 0x20 DUP3 LT DUP2 SUB PUSH2 0xACA JUMPI PUSH2 0xAC9 PUSH2 0xA73 JUMP JUMPDEST JUMPDEST POP SWAP2 SWAP1 POP JUMP JUMPDEST PUSH32 0x4E6F74206F776E65720000000000000000000000000000000000000000000000 PUSH0 DUP3 ADD MSTORE POP JUMP JUMPDEST PUSH0 PUSH2 0xB04 PUSH1 0x9 DUP4 PUSH2 0x7D4 JUMP JUMPDEST SWAP2 POP PUSH2 0xB0F DUP3 PUSH2 0xAD0 JUMP JUMPDEST PUSH1 0x20 DUP3 ADD SWAP1 POP SWAP2 SWAP1 POP JUMP JUMPDEST PUSH0 PUSH1 0x20 DUP3 ADD SWAP1 POP DUP2 DUP2 SUB PUSH0 DUP4 ADD MSTORE PUSH2 0xB31 DUP2 PUSH2 0xAF8 JUMP JUMPDEST SWAP1 POP SWAP2 SWAP1 POP JUMP JUMPDEST PUSH0 DUP2 SWAP1 POP SWAP3 SWAP2 POP POP JUMP JUMPDEST POP JUMP JUMPDEST PUSH0 PUSH2 0xB50 PUSH0 DUP4 PUSH2 0xB38 JUMP JUMPDEST SWAP2 POP PUSH2 0xB5B DUP3 PUSH2 0xB42 JUMP JUMPDEST PUSH0 DUP3 ADD SWAP1 POP SWAP2 SWAP1 POP JUMP JUMPDEST PUSH0 PUSH2 0xB6F DUP3 PUSH2 0xB45 JUMP JUMPDEST SWAP2 POP DUP2 SWAP1 POP SWAP2 SWAP1 POP JUMP JUMPDEST PUSH32 0x5472616E73666572206661696C6564206661696C656400000000000000000000 PUSH0 DUP3 ADD MSTORE POP JUMP JUMPDEST PUSH0 PUSH2 0xBAD PUSH1 0x16 DUP4 PUSH2 0x7D4 JUMP JUMPDEST SWAP2 POP PUSH2 0xBB8 DUP3 PUSH2 0xB79 JUMP JUMPDEST PUSH1 0x20 DUP3 ADD SWAP1 POP SWAP2 SWAP1 POP JUMP JUMPDEST PUSH0 PUSH1 0x20 DUP3 ADD SWAP1 POP DUP2 DUP2 SUB PUSH0 DUP4 ADD MSTORE PUSH2 0xBDA DUP2 PUSH2 0xBA1 JUMP JUMPDEST SWAP1 POP SWAP2 SWAP1 POP JUMP JUMPDEST PUSH32 0x4E487B7100000000000000000000000000000000000000000000000000000000 PUSH0 MSTORE PUSH1 0x32 PUSH1 0x4 MSTORE PUSH1 0x24 PUSH0 REVERT JUMPDEST PUSH32 0x4E6F7420796F7572207265736572766174696F6E000000000000000000000000 PUSH0 DUP3 ADD MSTORE POP JUMP JUMPDEST PUSH0 PUSH2 0xC42 PUSH1 0x14 DUP4 PUSH2 0x7D4 JUMP JUMPDEST SWAP2 POP PUSH2 0xC4D DUP3 PUSH2 0xC0E JUMP JUMPDEST PUSH1 0x20 DUP3 ADD SWAP1 POP SWAP2 SWAP1 POP JUMP JUMPDEST PUSH0 PUSH1 0x20 DUP3 ADD SWAP1 POP DUP2 DUP2 SUB PUSH0 DUP4 ADD MSTORE PUSH2 0xC6F DUP2 PUSH2 0xC36 JUMP JUMPDEST SWAP1 POP SWAP2 SWAP1 POP JUMP JUMPDEST PUSH32 0x416C72656164792063616E63656C6C6564000000000000000000000000000000 PUSH0 DUP3 ADD MSTORE POP JUMP JUMPDEST PUSH0 PUSH2 0xCAA PUSH1 0x11 DUP4 PUSH2 0x7D4 JUMP JUMPDEST SWAP2 POP PUSH2 0xCB5 DUP3 PUSH2 0xC76 JUMP JUMPDEST PUSH1 0x20 DUP3 ADD SWAP1 POP SWAP2 SWAP1 POP JUMP JUMPDEST PUSH0 PUSH1 0x20 DUP3 ADD SWAP1 POP DUP2 DUP2 SUB PUSH0 DUP4 ADD MSTORE PUSH2 0xCD7 DUP2 PUSH2 0xC9E JUMP JUMPDEST SWAP1 POP SWAP2 SWAP1 POP JUMP JUMPDEST PUSH32 0x5472616E73666572206661696C65640000000000000000000000000000000000 PUSH0 DUP3 ADD MSTORE POP JUMP JUMPDEST PUSH0 PUSH2 0xD12 PUSH1 0xF DUP4 PUSH2 0x7D4 JUMP JUMPDEST SWAP2 POP PUSH2 0xD1D DUP3 PUSH2 0xCDE JUMP JUMPDEST PUSH1 0x20 DUP3 ADD SWAP1 POP SWAP2 SWAP1 POP JUMP JUMPDEST PUSH0 PUSH1 0x20 DUP3 ADD SWAP1 POP DUP2 DUP2 SUB PUSH0 DUP4 ADD MSTORE PUSH2 0xD3F DUP2 PUSH2 0xD06 JUMP JUMPDEST SWAP1 POP SWAP2 SWAP1 POP JUMP JUMPDEST PUSH32 0x4E6F7420656E6F75676820455448000000000000000000000000000000000000 PUSH0 DUP3 ADD MSTORE POP JUMP JUMPDEST PUSH0 PUSH2 0xD7A PUSH1 0xE DUP4 PUSH2 0x7D4 JUMP JUMPDEST SWAP2 POP PUSH2 0xD85 DUP3 PUSH2 0xD46 JUMP JUMPDEST PUSH1 0x20 DUP3 ADD SWAP1 POP SWAP2 SWAP1 POP JUMP JUMPDEST PUSH0 PUSH1 0x20 DUP3 ADD SWAP1 POP DUP2 DUP2 SUB PUSH0 DUP4 ADD MSTORE PUSH2 0xDA7 DUP2 PUSH2 0xD6E JUMP JUMPDEST SWAP1 POP SWAP2 SWAP1 POP JUMP JUMPDEST PUSH0 DUP2 SWAP1 POP DUP2 PUSH0 MSTORE PUSH1 0x20 PUSH0 KECCAK256 SWAP1 POP SWAP2 SWAP1 POP JUMP JUMPDEST PUSH0 PUSH1 0x20 PUSH1 0x1F DUP4 ADD DIV SWAP1 POP SWAP2 SWAP1 POP JUMP JUMPDEST PUSH0 DUP3 DUP3 SHL SWAP1 POP SWAP3 SWAP2 POP POP JUMP JUMPDEST PUSH0 PUSH1 0x8 DUP4 MUL PUSH2 0xE0A PUSH32 0xFFFFFFFFFFFFFFFFFFFFFFFFFFFFFFFFFFFFFFFFFFFFFFFFFFFFFFFFFFFFFFFF DUP3 PUSH2 0xDCF JUMP JUMPDEST PUSH2 0xE14 DUP7 DUP4 PUSH2 0xDCF JUMP JUMPDEST SWAP6 POP DUP1 NOT DUP5 AND SWAP4 POP DUP1 DUP7 AND DUP5 OR SWAP3 POP POP POP SWAP4 SWAP3 POP POP POP JUMP JUMPDEST PUSH0 DUP2 SWAP1 POP SWAP2 SWAP1 POP JUMP JUMPDEST PUSH0 PUSH2 0xE4F PUSH2 0xE4A PUSH2 0xE45 DUP5 PUSH2 0x72D JUMP JUMPDEST PUSH2 0xE2C JUMP JUMPDEST PUSH2 0x72D JUMP JUMPDEST SWAP1 POP SWAP2 SWAP1 POP JUMP JUMPDEST PUSH0 DUP2 SWAP1 POP SWAP2 SWAP1 POP JUMP JUMPDEST PUSH2 0xE68 DUP4 PUSH2 0xE35 JUMP JUMPDEST PUSH2 0xE7C PUSH2 0xE74 DUP3 PUSH2 0xE56 JUMP JUMPDEST DUP5 DUP5 SLOAD PUSH2 0xDDB JUMP JUMPDEST DUP3 SSTORE POP POP POP POP JUMP JUMPDEST PUSH0 PUSH0 SWAP1 POP SWAP1 JUMP JUMPDEST PUSH2 0xE93 PUSH2 0xE84 JUMP JUMPDEST PUSH2 0xE9E DUP2 DUP5 DUP5 PUSH2 0xE5F JUMP JUMPDEST POP POP POP JUMP JUMPDEST PUSH0 JUMPDEST DUP3 DUP2 LT ISZERO PUSH2 0xEC4 JUMPI PUSH2 0xEB9 PUSH0 DUP3 DUP5 ADD PUSH2 0xE8B JUMP JUMPDEST PUSH1 0x1 DUP2 ADD SWAP1 POP PUSH2 0xEA5 JUMP JUMPDEST POP POP POP JUMP JUMPDEST PUSH1 0x1F DUP3 GT ISZERO PUSH2 0xF17 JUMPI DUP3 DUP3 GT ISZERO PUSH2 0xF16 JUMPI PUSH2 0xEE3 DUP2 PUSH2 0xDAE JUMP JUMPDEST PUSH2 0xEEC DUP4 PUSH2 0xDC0 JUMP JUMPDEST PUSH2 0xEF5 DUP6 PUSH2 0xDC0 JUMP JUMPDEST PUSH1 0x20 DUP7 LT ISZERO PUSH2 0xF02 JUMPI PUSH0 SWAP1 POP JUMPDEST DUP1 DUP4 ADD PUSH2 0xF11 DUP3 DUP5 SUB DUP3 PUSH2 0xEA3 JUMP JUMPDEST POP POP POP POP JUMPDEST JUMPDEST POP POP POP JUMP JUMPDEST PUSH0 DUP3 DUP3 SHR SWAP1 POP SWAP3 SWAP2 POP POP JUMP JUMPDEST PUSH0 PUSH2 0xF37 PUSH0 NOT DUP5 PUSH1 0x8 MUL PUSH2 0xF1C JUMP JUMPDEST NOT DUP1 DUP4 AND SWAP2 POP POP SWAP3 SWAP2 POP POP JUMP JUMPDEST PUSH0 PUSH2 0xF4F DUP4 DUP4 PUSH2 0xF28 JUMP JUMPDEST SWAP2 POP DUP3 PUSH1 0x2 MUL DUP3 OR SWAP1 POP SWAP3 SWAP2 POP POP JUMP JUMPDEST PUSH2 0xF68 DUP3 PUSH2 0x7CA JUMP JUMPDEST PUSH8 0xFFFFFFFFFFFFFFFF DUP2 GT ISZERO PUSH2 0xF81 JUMPI PUSH2 0xF80 PUSH2 0x8F5 JUMP JUMPDEST JUMPDEST PUSH2 0xF8B DUP3 SLOAD PUSH2 0xAA0 JUMP JUMPDEST PUSH2 0xF96 DUP3 DUP3 DUP6 PUSH2 0xEC9 JUMP JUMPDEST PUSH0 PUSH1 0x20 SWAP1 POP PUSH1 0x1F DUP4 GT PUSH1 0x1 DUP2 EQ PUSH2 0xFC7 JUMPI PUSH0 DUP5 ISZERO PUSH2 0xFB5 JUMPI DUP3 DUP8 ADD MLOAD SWAP1 POP JUMPDEST PUSH2 0xFBF DUP6 DUP3 PUSH2 0xF44 JUMP JUMPDEST DUP7 SSTORE POP PUSH2 0x1026 JUMP JUMPDEST PUSH1 0x1F NOT DUP5 AND PUSH2 0xFD5 DUP7 PUSH2 0xDAE JUMP JUMPDEST PUSH0 JUMPDEST DUP3 DUP2 LT ISZERO PUSH2 0xFFC JUMPI DUP5 DUP10 ADD MLOAD DUP3 SSTORE PUSH1 0x1 DUP3 ADD SWAP2 POP PUSH1 0x20 DUP6 ADD SWAP5 POP PUSH1 0x20 DUP2 ADD SWAP1 POP PUSH2 0xFD7 JUMP JUMPDEST DUP7 DUP4 LT ISZERO PUSH2 0x1019 JUMPI DUP5 DUP10 ADD MLOAD PUSH2 0x1015 PUSH1 0x1F DUP10 AND DUP3 PUSH2 0xF28 JUMP JUMPDEST DUP4 SSTORE POP JUMPDEST PUSH1 0x1 PUSH1 0x2 DUP9 MUL ADD DUP9 SSTORE POP POP POP JUMPDEST POP POP POP POP POP POP JUMP INVALID LOG2 PUSH5 0x6970667358 0x22 SLT KECCAK256 INVALID 0xD6 0xA7 SWAP9 PUSH11 0x49DE3B2866BC862EC2D5AE JUMPF 0xA555 0xB2 DUP14 NOT MLOAD 0xB6 DUP11 PUSH9 0xEED1AD44EB4464736F PUSH13 0x63430008220033000000000000 "
				},
				"gasEstimates": {
					"creation": {
						"codeDepositCost": "839200",
						"executionCost": "47245",
						"totalCost": "886445"
					},
					"external": {
						"bookings(uint256)": "infinite",
						"cancelReservation(uint256)": "infinite",
						"getBookingsCount()": "2484",
						"owner()": "2552",
						"reservationPrice()": "2447",
						"reserve(string,uint256)": "infinite",
						"withdraw()": "infinite"
					}
				},
				"methodIdentifiers": {
					"bookings(uint256)": "1dab301e",
					"cancelReservation(uint256)": "ae5e6cf4",
					"getBookingsCount()": "d8012a2a",
					"owner()": "8da5cb5b",
					"reservationPrice()": "af426f11",
					"reserve(string,uint256)": "f0f160f8",
					"withdraw()": "3ccfd60b"
				}
			},
			"storageLayout": {
				"storage": [
					{
						"astId": 3,
						"contract": "Reservation.sol:Reservation",
						"label": "owner",
						"offset": 0,
						"slot": "0",
						"type": "t_address"
					},
					{
						"astId": 6,
						"contract": "Reservation.sol:Reservation",
						"label": "reservationPrice",
						"offset": 0,
						"slot": "1",
						"type": "t_uint256"
					},
					{
						"astId": 21,
						"contract": "Reservation.sol:Reservation",
						"label": "bookings",
						"offset": 0,
						"slot": "2",
						"type": "t_array(t_struct(Booking)17_storage)dyn_storage"
					}
				],
				"types": {
					"t_address": {
						"encoding": "inplace",
						"label": "address",
						"numberOfBytes": "20"
					},
					"t_array(t_struct(Booking)17_storage)dyn_storage": {
						"base": "t_struct(Booking)17_storage",
						"encoding": "dynamic_array",
						"label": "struct Reservation.Booking[]",
						"numberOfBytes": "32"
					},
					"t_bool": {
						"encoding": "inplace",
						"label": "bool",
						"numberOfBytes": "1"
					},
					"t_string_storage": {
						"encoding": "bytes",
						"label": "string",
						"numberOfBytes": "32"
					},
					"t_struct(Booking)17_storage": {
						"encoding": "inplace",
						"label": "struct Reservation.Booking",
						"members": [
							{
								"astId": 8,
								"contract": "Reservation.sol:Reservation",
								"label": "user",
								"offset": 0,
								"slot": "0",
								"type": "t_address"
							},
							{
								"astId": 10,
								"contract": "Reservation.sol:Reservation",
								"label": "name",
								"offset": 0,
								"slot": "1",
								"type": "t_string_storage"
							},
							{
								"astId": 12,
								"contract": "Reservation.sol:Reservation",
								"label": "date",
								"offset": 0,
								"slot": "2",
								"type": "t_uint256"
							},
							{
								"astId": 14,
								"contract": "Reservation.sol:Reservation",
								"label": "amount",
								"offset": 0,
								"slot": "3",
								"type": "t_uint256"
							},
							{
								"astId": 16,
								"contract": "Reservation.sol:Reservation",
								"label": "cancelled",
								"offset": 0,
								"slot": "4",
								"type": "t_bool"
							}
						],
						"numberOfBytes": "160"
					},
					"t_uint256": {
						"encoding": "inplace",
						"label": "uint256",
						"numberOfBytes": "32"
					}
				}
			},
			"userdoc": {
				"kind": "user",
				"methods": {},
				"version": 1
			}
		}
	}
}